{
  "transactions": [
    {
      "hash": "0xdd080c92297c663b6dcffeaaf5e1be11ffeb947cb0f358428fbbba7a2a56bed0",
      "transactionType": "CALL",
      "contractName": "BoundedTTLHook_1Week",
      "contractAddress": "0xf6314300b42b7d88c153348921a95d3ca95e74bd",
      "function": "updateWhitelistedAppsStatus(address,bool)",
      "arguments": [
        "0x9d3828e89Fadc4DEc77758988b388435Fe0f8DCa",
        "true"
      ],
      "transaction": {
        "from": "0x615443c734716338039dff118e88dd050d1d9960",
        "to": "0xf6314300b42b7d88c153348921a95d3ca95e74bd",
        "gas": "0xfa79",
        "value": "0x0",
        "input": "0x8e007f700000000000000000000000009d3828e89fadc4dec77758988b388435fe0f8dca0000000000000000000000000000000000000000000000000000000000000001",
        "nonce": "0x37",
        "chainId": "0x92"
      },
      "additionalContracts": [],
      "isFixedGasLimit": false
    },
    {
      "hash": "0x6461df0b229cbdf735047e3678c9a84b0619a0dbed77adedc75d57c6bacc19b8",
      "transactionType": "CALL",
      "contractName": "BoundedTTLHook_0Day",
      "contractAddress": "0x78d96c07b16d8f911c4cd14ee10601921e4fb8af",
      "function": "updateWhitelistedAppsStatus(address,bool)",
      "arguments": [
        "0x9d3828e89Fadc4DEc77758988b388435Fe0f8DCa",
        "true"
      ],
      "transaction": {
        "from": "0x615443c734716338039dff118e88dd050d1d9960",
        "to": "0x78d96c07b16d8f911c4cd14ee10601921e4fb8af",
        "gas": "0xfa79",
        "value": "0x0",
        "input": "0x8e007f700000000000000000000000009d3828e89fadc4dec77758988b388435fe0f8dca0000000000000000000000000000000000000000000000000000000000000001",
        "nonce": "0x38",
        "chainId": "0x92"
      },
      "additionalContracts": [],
      "isFixedGasLimit": false
    },
    {
      "hash": "0xab57eb8145c6ae98a4a6c1622fbd2723a12426761c67aef907350edd8e641b2e",
      "transactionType": "CALL",
      "contractName": "BoundedTTLHook_1Week",
      "contractAddress": "0xf6314300b42b7d88c153348921a95d3ca95e74bd",
      "function": "updateWhitelistedAppsStatus(address,bool)",
      "arguments": [
        "0x342e4068bA07bbCcBDDE503b2451FAa3D3C0278B",
        "true"
      ],
      "transaction": {
        "from": "0x615443c734716338039dff118e88dd050d1d9960",
        "to": "0xf6314300b42b7d88c153348921a95d3ca95e74bd",
        "gas": "0xfa79",
        "value": "0x0",
        "input": "0x8e007f70000000000000000000000000342e4068ba07bbccbdde503b2451faa3d3c0278b0000000000000000000000000000000000000000000000000000000000000001",
        "nonce": "0x39",
        "chainId": "0x92"
      },
      "additionalContracts": [],
      "isFixedGasLimit": false
    },
    {
      "hash": "0x68f7f61956fe82bcdac6379a9e24d17c8e5210cecd85cb7d53b542603b9ef536",
      "transactionType": "CALL",
      "contractName": "BoundedTTLHook_0Day",
      "contractAddress": "0x78d96c07b16d8f911c4cd14ee10601921e4fb8af",
      "function": "updateWhitelistedAppsStatus(address,bool)",
      "arguments": [
        "0x342e4068bA07bbCcBDDE503b2451FAa3D3C0278B",
        "true"
      ],
      "transaction": {
        "from": "0x615443c734716338039dff118e88dd050d1d9960",
        "to": "0x78d96c07b16d8f911c4cd14ee10601921e4fb8af",
        "gas": "0xfa79",
        "value": "0x0",
        "input": "0x8e007f70000000000000000000000000342e4068ba07bbccbdde503b2451faa3d3c0278b0000000000000000000000000000000000000000000000000000000000000001",
        "nonce": "0x3a",
        "chainId": "0x92"
      },
      "additionalContracts": [],
      "isFixedGasLimit": false
    }
  ],
  "receipts": [
    {
      "status": "0x1",
      "cumulativeGasUsed": "0xbc40",
      "logs": [],
      "logsBloom": "0x00000000000000000000000000000000000000000000000000000000000000000000000000000000000000000000000000000000000000000000000000000000000000000000000000000000000000000000000000000000000000000000000000000000000000000000000000000000000000000000000000000000000000000000000000000000000000000000000000000000000000000000000000000000000000000000000000000000000000000000000000000000000000000000000000000000000000000000000000000000000000000000000000000000000000000000000000000000000000000000000000000000000000000000000000000000",
      "type": "0x2",
      "transactionHash": "0x6461df0b229cbdf735047e3678c9a84b0619a0dbed77adedc75d57c6bacc19b8",
      "transactionIndex": "0x0",
      "blockHash": "0x5de196255129b2955a493c35d7cb5fef9b60f1712ee6f6c67b77d5f919585f64",
      "blockNumber": "0x1d9ea4",
      "gasUsed": "0xbc40",
      "effectiveGasPrice": "0x3b9aca01",
      "from": "0x615443c734716338039dff118e88dd050d1d9960",
      "to": "0x78d96c07b16d8f911c4cd14ee10601921e4fb8af",
      "contractAddress": null
    },
    {
      "status": "0x1",
      "cumulativeGasUsed": "0x17880",
      "logs": [],
      "logsBloom": "0x00000000000000000000000000000000000000000000000000000000000000000000000000000000000000000000000000000000000000000000000000000000000000000000000000000000000000000000000000000000000000000000000000000000000000000000000000000000000000000000000000000000000000000000000000000000000000000000000000000000000000000000000000000000000000000000000000000000000000000000000000000000000000000000000000000000000000000000000000000000000000000000000000000000000000000000000000000000000000000000000000000000000000000000000000000000",
      "type": "0x2",
      "transactionHash": "0xab57eb8145c6ae98a4a6c1622fbd2723a12426761c67aef907350edd8e641b2e",
      "transactionIndex": "0x1",
      "blockHash": "0x5de196255129b2955a493c35d7cb5fef9b60f1712ee6f6c67b77d5f919585f64",
      "blockNumber": "0x1d9ea4",
      "gasUsed": "0xbc40",
      "effectiveGasPrice": "0x3b9aca01",
      "from": "0x615443c734716338039dff118e88dd050d1d9960",
      "to": "0xf6314300b42b7d88c153348921a95d3ca95e74bd",
      "contractAddress": null
    },
    {
      "status": "0x1",
      "cumulativeGasUsed": "0x234c0",
      "logs": [],
      "logsBloom": "0x00000000000000000000000000000000000000000000000000000000000000000000000000000000000000000000000000000000000000000000000000000000000000000000000000000000000000000000000000000000000000000000000000000000000000000000000000000000000000000000000000000000000000000000000000000000000000000000000000000000000000000000000000000000000000000000000000000000000000000000000000000000000000000000000000000000000000000000000000000000000000000000000000000000000000000000000000000000000000000000000000000000000000000000000000000000",
      "type": "0x2",
      "transactionHash": "0x68f7f61956fe82bcdac6379a9e24d17c8e5210cecd85cb7d53b542603b9ef536",
      "transactionIndex": "0x2",
      "blockHash": "0x5de196255129b2955a493c35d7cb5fef9b60f1712ee6f6c67b77d5f919585f64",
      "blockNumber": "0x1d9ea4",
      "gasUsed": "0xbc40",
      "effectiveGasPrice": "0x3b9aca01",
      "from": "0x615443c734716338039dff118e88dd050d1d9960",
      "to": "0x78d96c07b16d8f911c4cd14ee10601921e4fb8af",
      "contractAddress": null
    }
  ],
  "libraries": [],
  "pending": [
    "0xdd080c92297c663b6dcffeaaf5e1be11ffeb947cb0f358428fbbba7a2a56bed0"
  ],
  "returns": {},
  "timestamp": 1735514517,
  "chain": 146,
  "commit": "f047cfb"
}