{
  "transactions": [
    {
      "hash": "0xbf931342de0eb5b3516df440213145bd7706881f74bc3c34a26ff2112759f6f3",
      "transactionType": "CALL",
      "contractName": null,
      "contractAddress": "0x9fd06bb305d74c85961ce2307dab72b07d06606f",
      "function": "setDopexV2PositionManager(address)",
      "arguments": [
        "0xa8C29FD16c272092b4361804736B4f7193a61c92"
      ],
      "transaction": {
        "from": "0x615443c734716338039dff118e88dd050d1d9960",
        "to": "0x9fd06bb305d74c85961ce2307dab72b07d06606f",
        "gas": "0xf91e",
        "value": "0x0",
        "input": "0x97ae61e0000000000000000000000000a8c29fd16c272092b4361804736b4f7193a61c92",
        "nonce": "0x8",
        "chainId": "0x92"
      },
      "additionalContracts": [],
      "isFixedGasLimit": false
    }
  ],
  "receipts": [
    {
      "status": "0x1",
      "cumulativeGasUsed": "0xbb3c",
      "logs": [],
      "logsBloom": "0x00000000000000000000000000000000000000000000000000000000000000000000000000000000000000000000000000000000000000000000000000000000000000000000000000000000000000000000000000000000000000000000000000000000000000000000000000000000000000000000000000000000000000000000000000000000000000000000000000000000000000000000000000000000000000000000000000000000000000000000000000000000000000000000000000000000000000000000000000000000000000000000000000000000000000000000000000000000000000000000000000000000000000000000000000000000",
      "type": "0x2",
      "transactionHash": "0xbf931342de0eb5b3516df440213145bd7706881f74bc3c34a26ff2112759f6f3",
      "transactionIndex": "0x0",
      "blockHash": "0x45b39e8863c8d609b5c429b38f22ae1fb3a6955322a527136cffe21f55a1247b",
      "blockNumber": "0x91d58",
      "gasUsed": "0xbb3c",
      "effectiveGasPrice": "0x41397992",
      "from": "0x615443c734716338039dff118e88dd050d1d9960",
      "to": "0x9fd06bb305d74c85961ce2307dab72b07d06606f",
      "contractAddress": null
    }
  ],
  "libraries": [],
  "pending": [],
  "returns": {},
  "timestamp": 1735422013,
  "chain": 146,
  "commit": "1092c5b"
}