{
  "transactions": [
    {
      "hash": "0x808e7d9a4ace8220dd269dfbe88de5ff660badc5d8143cd5df00850de8d540e5",
      "transactionType": "CREATE",
      "contractName": "BoundedTTLHook_0Day",
      "contractAddress": "0x8c30c7F03421D2C9A0354e93c23014BF6C465a79",
      "function": null,
      "arguments": null,
      "transaction": {
        "type": "0x00",
        "from": "0xee82496d3ed1f5afbeb9b29f3f59289fd899d9d0",
        "gas": "0x567c2c",
        "value": "0x0",
        "data": "0x608060405234801561001057600080fd5b5061001a3361001f565b61006f565b600080546001600160a01b038381166001600160a01b0319831681178455604051919092169283917f8be0079c531659141344cd1fd0a4f28419497f9722a3daafe3b4186f6b6457e09190a35050565b6103fc8061007e6000396000f3fe608060405234801561001057600080fd5b50600436106100625760003560e01c80633f9dd86814610067578063715018a61461007b5780637bd14bcd146100835780638da5cb5b146100965780638e007f70146100ba578063f2fde38b146100cd575b600080fd5b6100796100753660046102b2565b5050565b005b6100796100e0565b6100796100913660046102b2565b6100f4565b61009e610143565b6040516001600160a01b03909116815260200160405180910390f35b6100796100c8366004610338565b610152565b6100796100db366004610376565b610185565b6100e8610203565b6100f26000610262565b565b6000806101038385018561039a565b6001600160a01b038216600090815260016020526040902054919350915060ff1661012d57600080fd5b6201518081111561013d57600080fd5b50505050565b6000546001600160a01b031690565b61015a610203565b6001600160a01b03919091166000908152600160205260409020805460ff1916911515919091179055565b61018d610203565b6001600160a01b0381166101f75760405162461bcd60e51b815260206004820152602660248201527f4f776e61626c653a206e6577206f776e657220697320746865207a65726f206160448201526564647265737360d01b60648201526084015b60405180910390fd5b61020081610262565b50565b3361020c610143565b6001600160a01b0316146100f25760405162461bcd60e51b815260206004820181905260248201527f4f776e61626c653a2063616c6c6572206973206e6f7420746865206f776e657260448201526064016101ee565b600080546001600160a01b038381166001600160a01b0319831681178455604051919092169283917f8be0079c531659141344cd1fd0a4f28419497f9722a3daafe3b4186f6b6457e09190a35050565b600080602083850312156102c557600080fd5b82356001600160401b03808211156102dc57600080fd5b818501915085601f8301126102f057600080fd5b8135818111156102ff57600080fd5b86602082850101111561031157600080fd5b60209290920196919550909350505050565b6001600160a01b038116811461020057600080fd5b6000806040838503121561034b57600080fd5b823561035681610323565b91506020830135801515811461036b57600080fd5b809150509250929050565b60006020828403121561038857600080fd5b813561039381610323565b9392505050565b600080604083850312156103ad57600080fd5b82356103b881610323565b94602093909301359350505056fea26469706673582212209fece26bb44f2cac73f36fa878b8f818646dc8b1551d01867e06b555c21c963f64736f6c634300080f0033",
        "nonce": "0x66"
      },
      "additionalContracts": [],
      "isFixedGasLimit": false
    },
    {
      "hash": "0x262b677f48cfda00f4688c010087df796a74fe48e7f5d6d7ad0a5a49f619836f",
      "transactionType": "CALL",
      "contractName": "BoundedTTLHook_0Day",
      "contractAddress": "0x8c30c7F03421D2C9A0354e93c23014BF6C465a79",
      "function": "updateWhitelistedAppsStatus(address,bool)",
      "arguments": [
        "0x501B03BdB431154b8Df17BF1c00756E3a8F21744",
        "true"
      ],
      "transaction": {
        "type": "0x00",
        "from": "0xee82496d3ed1f5afbeb9b29f3f59289fd899d9d0",
        "to": "0x8c30c7f03421d2c9a0354e93c23014bf6c465a79",
        "gas": "0x10ed97",
        "value": "0x0",
        "data": "0x8e007f70000000000000000000000000501b03bdb431154b8df17bf1c00756e3a8f217440000000000000000000000000000000000000000000000000000000000000001",
        "nonce": "0x67"
      },
      "additionalContracts": [],
      "isFixedGasLimit": false
    },
    {
      "hash": "0xd3600183e0f901fcfc385164aae1b00e8c22b183c544c64a41eeee48d210222a",
      "transactionType": "CALL",
      "contractName": "BoundedTTLHook_0Day",
      "contractAddress": "0x8c30c7F03421D2C9A0354e93c23014BF6C465a79",
      "function": "updateWhitelistedAppsStatus(address,bool)",
      "arguments": [
        "0x550e7E236912DaA302F7d5D0d6e5D7b6EF191f04",
        "true"
      ],
      "transaction": {
        "type": "0x00",
        "from": "0xee82496d3ed1f5afbeb9b29f3f59289fd899d9d0",
        "to": "0x8c30c7f03421d2c9a0354e93c23014bf6c465a79",
        "gas": "0x10ed97",
        "value": "0x0",
        "data": "0x8e007f70000000000000000000000000550e7e236912daa302f7d5d0d6e5d7b6ef191f040000000000000000000000000000000000000000000000000000000000000001",
        "nonce": "0x68"
      },
      "additionalContracts": [],
      "isFixedGasLimit": false
    },
    {
      "hash": "0xbdb2164404329a917a0bf16ec1467da1b5ea3cd0c1f571a6e68f8a46a2106ee7",
      "transactionType": "CALL",
      "contractName": "BoundedTTLHook_0Day",
      "contractAddress": "0x8c30c7F03421D2C9A0354e93c23014BF6C465a79",
      "function": "updateWhitelistedAppsStatus(address,bool)",
      "arguments": [
        "0x4eed3A2b797Bf5630517EcCe2e31C1438A76bb92",
        "true"
      ],
      "transaction": {
        "type": "0x00",
        "from": "0xee82496d3ed1f5afbeb9b29f3f59289fd899d9d0",
        "to": "0x8c30c7f03421d2c9a0354e93c23014bf6c465a79",
        "gas": "0x10ed97",
        "value": "0x0",
        "data": "0x8e007f700000000000000000000000004eed3a2b797bf5630517ecce2e31c1438a76bb920000000000000000000000000000000000000000000000000000000000000001",
        "nonce": "0x69"
      },
      "additionalContracts": [],
      "isFixedGasLimit": false
    }
  ],
  "receipts": [
    {
      "transactionHash": "0x808e7d9a4ace8220dd269dfbe88de5ff660badc5d8143cd5df00850de8d540e5",
      "transactionIndex": "0x1",
      "blockHash": "0xdc98afaa23d6ea3a0e53ee746e29446174a62458c41dd9c70422fbf72381d33e",
      "blockNumber": "0xac09358",
      "from": "0xEE82496D3ed1f5AFbEB9B29f3f59289fd899d9D0",
      "to": null,
      "cumulativeGasUsed": "0x3a026c",
      "gasUsed": "0x3a026c",
      "contractAddress": "0x8c30c7F03421D2C9A0354e93c23014BF6C465a79",
      "logs": [
        {
          "address": "0x8c30c7F03421D2C9A0354e93c23014BF6C465a79",
          "topics": [
            "0x8be0079c531659141344cd1fd0a4f28419497f9722a3daafe3b4186f6b6457e0",
            "0x0000000000000000000000000000000000000000000000000000000000000000",
            "0x000000000000000000000000ee82496d3ed1f5afbeb9b29f3f59289fd899d9d0"
          ],
          "data": "0x",
          "blockHash": "0xdc98afaa23d6ea3a0e53ee746e29446174a62458c41dd9c70422fbf72381d33e",
          "blockNumber": "0xac09358",
          "transactionHash": "0x808e7d9a4ace8220dd269dfbe88de5ff660badc5d8143cd5df00850de8d540e5",
          "transactionIndex": "0x1",
          "logIndex": "0x0",
          "removed": false
        }
      ],
      "status": "0x1",
      "logsBloom": "0x00000000000000000040000000000000000000000000000000800000000000000000000000000004000000000000000000000000000000000000000000000000000000000000000000002000000008000001000000000000000000000000000000000000020000000000000000000800000000000000000000000000000001400000000000000000000000000000000000000000000000000000000000000000000000000080000000000000000000000000000000000000000000000000000000000000000000000000000000000000000000000000000000000000000020000000000000000000000000000000000000000000000000000000000000000000",
      "type": "0x0",
      "effectiveGasPrice": "0x5f5e100"
    },
    {
      "transactionHash": "0x262b677f48cfda00f4688c010087df796a74fe48e7f5d6d7ad0a5a49f619836f",
      "transactionIndex": "0x4",
      "blockHash": "0x9387b5b2aad9b0e57ee1e07be1fa274c6686056ec8856b1004cfbbe0f18dfe00",
      "blockNumber": "0xac0935e",
      "from": "0xEE82496D3ed1f5AFbEB9B29f3f59289fd899d9D0",
      "to": "0x8c30c7F03421D2C9A0354e93c23014BF6C465a79",
      "cumulativeGasUsed": "0x69cd59",
      "gasUsed": "0xa5926",
      "contractAddress": null,
      "logs": [],
      "status": "0x1",
      "logsBloom": "0x00000000000000000000000000000000000000000000000000000000000000000000000000000000000000000000000000000000000000000000000000000000000000000000000000000000000000000000000000000000000000000000000000000000000000000000000000000000000000000000000000000000000000000000000000000000000000000000000000000000000000000000000000000000000000000000000000000000000000000000000000000000000000000000000000000000000000000000000000000000000000000000000000000000000000000000000000000000000000000000000000000000000000000000000000000000",
      "type": "0x0",
      "effectiveGasPrice": "0x5f5e100"
    },
    {
      "transactionHash": "0xd3600183e0f901fcfc385164aae1b00e8c22b183c544c64a41eeee48d210222a",
      "transactionIndex": "0x2",
      "blockHash": "0x75b1a95195902c997aecdbc442d6b30b1ba7ea7b5ed12205bebfdc61b2d4510e",
      "blockNumber": "0xac09364",
      "from": "0xEE82496D3ed1f5AFbEB9B29f3f59289fd899d9D0",
      "to": "0x8c30c7F03421D2C9A0354e93c23014BF6C465a79",
      "cumulativeGasUsed": "0x111d02",
      "gasUsed": "0xa5926",
      "contractAddress": null,
      "logs": [],
      "status": "0x1",
      "logsBloom": "0x00000000000000000000000000000000000000000000000000000000000000000000000000000000000000000000000000000000000000000000000000000000000000000000000000000000000000000000000000000000000000000000000000000000000000000000000000000000000000000000000000000000000000000000000000000000000000000000000000000000000000000000000000000000000000000000000000000000000000000000000000000000000000000000000000000000000000000000000000000000000000000000000000000000000000000000000000000000000000000000000000000000000000000000000000000000",
      "type": "0x0",
      "effectiveGasPrice": "0x5f5e100"
    },
    {
      "transactionHash": "0xbdb2164404329a917a0bf16ec1467da1b5ea3cd0c1f571a6e68f8a46a2106ee7",
      "transactionIndex": "0x2",
      "blockHash": "0xda9ba20238f03088d956b85bb127cb9a798a6571aa8f94a9494d5aa9ff53726a",
      "blockNumber": "0xac0936a",
      "from": "0xEE82496D3ed1f5AFbEB9B29f3f59289fd899d9D0",
      "to": "0x8c30c7F03421D2C9A0354e93c23014BF6C465a79",
      "cumulativeGasUsed": "0x20dc07",
      "gasUsed": "0xa5926",
      "contractAddress": null,
      "logs": [],
      "status": "0x1",
      "logsBloom": "0x00000000000000000000000000000000000000000000000000000000000000000000000000000000000000000000000000000000000000000000000000000000000000000000000000000000000000000000000000000000000000000000000000000000000000000000000000000000000000000000000000000000000000000000000000000000000000000000000000000000000000000000000000000000000000000000000000000000000000000000000000000000000000000000000000000000000000000000000000000000000000000000000000000000000000000000000000000000000000000000000000000000000000000000000000000000",
      "type": "0x0",
      "effectiveGasPrice": "0x5f5e100"
    }
  ],
  "libraries": [],
  "pending": [],
  "returns": {},
  "timestamp": 1707844088,
  "chain": 42161,
  "multi": false,
  "commit": "a0c1cdc"
}