{
  "transactions": [
    {
      "hash": "0x3bfc33d5e7b879fb2eb04a2b320124ec0e41db0ad2a2c30ea84cf29cb130ecce",
      "transactionType": "CREATE",
      "contractName": "BoundedTTLHook_0Day",
      "contractAddress": "0xe68Db25857261874359bC5CFB8D04C0C012ac24C",
      "function": null,
      "arguments": null,
      "transaction": {
        "type": "0x00",
        "from": "0xee82496d3ed1f5afbeb9b29f3f59289fd899d9d0",
        "gas": "0x5ec27",
        "value": "0x0",
        "data": "0x608060405234801561001057600080fd5b5061001a3361001f565b61006f565b600080546001600160a01b038381166001600160a01b0319831681178455604051919092169283917f8be0079c531659141344cd1fd0a4f28419497f9722a3daafe3b4186f6b6457e09190a35050565b6103fc8061007e6000396000f3fe608060405234801561001057600080fd5b50600436106100625760003560e01c80633f9dd86814610067578063715018a61461007b5780637bd14bcd146100835780638da5cb5b146100965780638e007f70146100ba578063f2fde38b146100cd575b600080fd5b6100796100753660046102b2565b5050565b005b6100796100e0565b6100796100913660046102b2565b6100f4565b61009e610143565b6040516001600160a01b03909116815260200160405180910390f35b6100796100c8366004610338565b610152565b6100796100db366004610376565b610185565b6100e8610203565b6100f26000610262565b565b6000806101038385018561039a565b6001600160a01b038216600090815260016020526040902054919350915060ff1661012d57600080fd5b6201518081111561013d57600080fd5b50505050565b6000546001600160a01b031690565b61015a610203565b6001600160a01b03919091166000908152600160205260409020805460ff1916911515919091179055565b61018d610203565b6001600160a01b0381166101f75760405162461bcd60e51b815260206004820152602660248201527f4f776e61626c653a206e6577206f776e657220697320746865207a65726f206160448201526564647265737360d01b60648201526084015b60405180910390fd5b61020081610262565b50565b3361020c610143565b6001600160a01b0316146100f25760405162461bcd60e51b815260206004820181905260248201527f4f776e61626c653a2063616c6c6572206973206e6f7420746865206f776e657260448201526064016101ee565b600080546001600160a01b038381166001600160a01b0319831681178455604051919092169283917f8be0079c531659141344cd1fd0a4f28419497f9722a3daafe3b4186f6b6457e09190a35050565b600080602083850312156102c557600080fd5b82356001600160401b03808211156102dc57600080fd5b818501915085601f8301126102f057600080fd5b8135818111156102ff57600080fd5b86602082850101111561031157600080fd5b60209290920196919550909350505050565b6001600160a01b038116811461020057600080fd5b6000806040838503121561034b57600080fd5b823561035681610323565b91506020830135801515811461036b57600080fd5b809150509250929050565b60006020828403121561038857600080fd5b813561039381610323565b9392505050565b600080604083850312156103ad57600080fd5b82356103b881610323565b94602093909301359350505056fea264697066735822122004482760a8c8c5f7c4ce5b8afd31d9607ec1245694d13490c30a048ccd50559564736f6c634300080f0033",
        "nonce": "0x2a"
      },
      "additionalContracts": [],
      "isFixedGasLimit": false
    },
    {
      "hash": "0xf88fe1e459578d4f77387795e837ba51646dcafcfb6f2c4c8a7c68db51f7e1a2",
      "transactionType": "CALL",
      "contractName": "src/handlers/hooks/BoundedTTLHook_0Day.sol:BoundedTTLHook_0Day",
      "contractAddress": "0xe68Db25857261874359bC5CFB8D04C0C012ac24C",
      "function": "updateWhitelistedAppsStatus(address,bool)",
      "arguments": [
        "0x1D5DE630BbBF68c9bf17D8462605227D79eA910C",
        "true"
      ],
      "transaction": {
        "type": "0x00",
        "from": "0xee82496d3ed1f5afbeb9b29f3f59289fd899d9d0",
        "to": "0xe68db25857261874359bc5cfb8d04c0c012ac24c",
        "gas": "0xfa79",
        "value": "0x0",
        "data": "0x8e007f700000000000000000000000001d5de630bbbf68c9bf17d8462605227d79ea910c0000000000000000000000000000000000000000000000000000000000000001",
        "nonce": "0x2b"
      },
      "additionalContracts": [],
      "isFixedGasLimit": false
    },
    {
      "hash": null,
      "transactionType": "CALL",
      "contractName": "src/handlers/hooks/BoundedTTLHook_0Day.sol:BoundedTTLHook_0Day",
      "contractAddress": "0xe68Db25857261874359bC5CFB8D04C0C012ac24C",
      "function": "updateWhitelistedAppsStatus(address,bool)",
      "arguments": [
        "0x50d31b053c3a099b2CAE50eb63848ECcF87D72Df",
        "true"
      ],
      "transaction": {
        "type": "0x00",
        "from": "0xee82496d3ed1f5afbeb9b29f3f59289fd899d9d0",
        "to": "0xe68db25857261874359bc5cfb8d04c0c012ac24c",
        "gas": "0xfa79",
        "value": "0x0",
        "data": "0x8e007f7000000000000000000000000050d31b053c3a099b2cae50eb63848eccf87d72df0000000000000000000000000000000000000000000000000000000000000001",
        "nonce": "0x2c"
      },
      "additionalContracts": [],
      "isFixedGasLimit": false
    },
    {
      "hash": null,
      "transactionType": "CALL",
      "contractName": "src/handlers/hooks/BoundedTTLHook_0Day.sol:BoundedTTLHook_0Day",
      "contractAddress": "0xe68Db25857261874359bC5CFB8D04C0C012ac24C",
      "function": "updateWhitelistedAppsStatus(address,bool)",
      "arguments": [
        "0xcDA890C42365dCb1A8a1079F2f47379Ad620bC99",
        "true"
      ],
      "transaction": {
        "type": "0x00",
        "from": "0xee82496d3ed1f5afbeb9b29f3f59289fd899d9d0",
        "to": "0xe68db25857261874359bc5cfb8d04c0c012ac24c",
        "gas": "0xfa79",
        "value": "0x0",
        "data": "0x8e007f70000000000000000000000000cda890c42365dcb1a8a1079f2f47379ad620bc990000000000000000000000000000000000000000000000000000000000000001",
        "nonce": "0x2d"
      },
      "additionalContracts": [],
      "isFixedGasLimit": false
    }
  ],
  "receipts": [],
  "libraries": [],
  "pending": [
    "0x3bfc33d5e7b879fb2eb04a2b320124ec0e41db0ad2a2c30ea84cf29cb130ecce",
    "0xf88fe1e459578d4f77387795e837ba51646dcafcfb6f2c4c8a7c68db51f7e1a2"
  ],
  "returns": {},
  "timestamp": 1709631309,
  "chain": 5000,
  "multi": false,
  "commit": "82af829"
}