{
  "transactions": [
    {
      "hash": "0xc99e60b287e859f0809357784bf39b7a17d9650e3351eec349c408dfc9bab692",
      "transactionType": "CALL",
      "contractName": null,
      "contractAddress": "0xe68Db25857261874359bC5CFB8D04C0C012ac24C",
      "function": "updateWhitelistedAppsStatus(address,bool)",
      "arguments": [
        "0xcDA890C42365dCb1A8a1079F2f47379Ad620bC99",
        "true"
      ],
      "transaction": {
        "type": "0x00",
        "from": "0xee82496d3ed1f5afbeb9b29f3f59289fd899d9d0",
        "to": "0xe68db25857261874359bc5cfb8d04c0c012ac24c",
        "gas": "0xfa79",
        "value": "0x0",
        "data": "0x8e007f70000000000000000000000000cda890c42365dcb1a8a1079f2f47379ad620bc990000000000000000000000000000000000000000000000000000000000000001",
        "nonce": "0x2d"
      },
      "additionalContracts": [],
      "isFixedGasLimit": false
    }
  ],
  "receipts": [
    {
      "transactionHash": "0xc99e60b287e859f0809357784bf39b7a17d9650e3351eec349c408dfc9bab692",
      "transactionIndex": "0x0",
      "blockHash": "0x3a8635a7a4607aeedff31538abfdf82b0bd9883ab3dd24425895ed34af23e60b",
      "blockNumber": "0x38a00cc",
      "from": "0xEE82496D3ed1f5AFbEB9B29f3f59289fd899d9D0",
      "to": "0xe68Db25857261874359bC5CFB8D04C0C012ac24C",
      "cumulativeGasUsed": "0xb557",
      "gasUsed": "0xb557",
      "contractAddress": null,
      "logs": [],
      "status": "0x1",
      "logsBloom": "0x00000000000000000000000000000000000000000000000000000000000000000000000000000000000000000000000000000000000000000000000000000000000000000000000000000000000000000000000000000000000000000000000000000000000000000000000000000000000000000000000000000000000000000000000000000000000000000000000000000000000000000000000000000000000000000000000000000000000000000000000000000000000000000000000000000000000000000000000000000000000000000000000000000000000000000000000000000000000000000000000000000000000000000000000000000000"
    }
  ],
  "libraries": [],
  "pending": [],
  "returns": {},
  "timestamp": 1709631406,
  "chain": 5000,
  "multi": false,
  "commit": "82af829"
}