{
  "transactions": [
    {
      "hash": "0x79b9b6705341dada85dd69ddb2500a289873dc93d5eadda1b02a856b370de476",
      "transactionType": "CALL",
      "contractName": null,
      "contractAddress": "0xe68Db25857261874359bC5CFB8D04C0C012ac24C",
      "function": "updateWhitelistedAppsStatus(address,bool)",
      "arguments": [
        "0x50d31b053c3a099b2CAE50eb63848ECcF87D72Df",
        "true"
      ],
      "transaction": {
        "type": "0x00",
        "from": "0xee82496d3ed1f5afbeb9b29f3f59289fd899d9d0",
        "to": "0xe68db25857261874359bc5cfb8d04c0c012ac24c",
        "gas": "0xfa79",
        "value": "0x0",
        "data": "0x8e007f7000000000000000000000000050d31b053c3a099b2cae50eb63848eccf87d72df0000000000000000000000000000000000000000000000000000000000000001",
        "nonce": "0x2c"
      },
      "additionalContracts": [],
      "isFixedGasLimit": false
    },
    {
      "hash": null,
      "transactionType": "CALL",
      "contractName": null,
      "contractAddress": "0xe68Db25857261874359bC5CFB8D04C0C012ac24C",
      "function": "updateWhitelistedAppsStatus(address,bool)",
      "arguments": [
        "0xcDA890C42365dCb1A8a1079F2f47379Ad620bC99",
        "true"
      ],
      "transaction": {
        "type": "0x00",
        "from": "0xee82496d3ed1f5afbeb9b29f3f59289fd899d9d0",
        "to": "0xe68db25857261874359bc5cfb8d04c0c012ac24c",
        "gas": "0xfa79",
        "value": "0x0",
        "data": "0x8e007f70000000000000000000000000cda890c42365dcb1a8a1079f2f47379ad620bc990000000000000000000000000000000000000000000000000000000000000001",
        "nonce": "0x2d"
      },
      "additionalContracts": [],
      "isFixedGasLimit": false
    }
  ],
  "receipts": [],
  "libraries": [],
  "pending": [
    "0x79b9b6705341dada85dd69ddb2500a289873dc93d5eadda1b02a856b370de476"
  ],
  "returns": {},
  "timestamp": 1709631388,
  "chain": 5000,
  "multi": false,
  "commit": "82af829"
}