{
  "transactions": [
    {
      "hash": "0xf233abc847ee8cf17dc9c8745e16fa163b72d06ad875f3ff2a4aeba24ca6a2f2",
      "transactionType": "CALL",
      "contractName": null,
      "contractAddress": "0xE9e1310d3E6401DFa1f5A3544CC6B0fced68c189",
      "function": "updateAddress(address,address,address,address,address,bool,address,bool)",
      "arguments": [
        "0x5674Ce0Dbb2B5973aB768fB40938524da927A459",
        "0x0000000000000000000000000000000000000000",
        "0xC808AcB06077174333b31Ae123C33c6559730035",
        "0x6f075238F5FC11b7146437B741116C87D452b0ff",
        "0x1804c8AB1F12E6bbf3894d4083f33e07309d1f38",
        "true",
        "0xe24F62341D84D11078188d83cA3be118193D6389",
        "true"
      ],
      "transaction": {
        "type": "0x00",
        "from": "0xee82496d3ed1f5afbeb9b29f3f59289fd899d9d0",
        "to": "0xe9e1310d3e6401dfa1f5a3544cc6b0fced68c189",
        "gas": "0x44f6e",
        "value": "0x0",
        "data": "0xc35ca6120000000000000000000000005674ce0dbb2b5973ab768fb40938524da927a4590000000000000000000000000000000000000000000000000000000000000000000000000000000000000000c808acb06077174333b31ae123c33c65597300350000000000000000000000006f075238f5fc11b7146437b741116c87d452b0ff0000000000000000000000001804c8ab1f12e6bbf3894d4083f33e07309d1f380000000000000000000000000000000000000000000000000000000000000001000000000000000000000000e24f62341d84d11078188d83ca3be118193d63890000000000000000000000000000000000000000000000000000000000000001",
        "nonce": "0xa2"
      },
      "additionalContracts": [],
      "isFixedGasLimit": false
    }
  ],
  "receipts": [
    {
      "transactionHash": "0xf233abc847ee8cf17dc9c8745e16fa163b72d06ad875f3ff2a4aeba24ca6a2f2",
      "transactionIndex": "0x1",
      "blockHash": "0x011b91f2ba187694aa130596e7d048a052b18ecb48c345f4bd9a053c6e1b2ea8",
      "blockNumber": "0xc2a1699",
      "from": "0xEE82496D3ed1f5AFbEB9B29f3f59289fd899d9D0",
      "to": "0xE9e1310d3E6401DFa1f5A3544CC6B0fced68c189",
      "cumulativeGasUsed": "0x2fc8a",
      "gasUsed": "0x2fc8a",
      "contractAddress": null,
      "logs": [
        {
          "address": "0xE9e1310d3E6401DFa1f5A3544CC6B0fced68c189",
          "topics": [
            "0x318be759e0d069183ded0831e6c2119c16ced81a05e6da31c19c8c53d01bb9e2"
          ],
          "data": "0x0000000000000000000000000000000000000000000000000000000000000000000000000000000000000000c808acb06077174333b31ae123c33c65597300350000000000000000000000006f075238f5fc11b7146437b741116c87d452b0ff",
          "blockHash": "0x011b91f2ba187694aa130596e7d048a052b18ecb48c345f4bd9a053c6e1b2ea8",
          "blockNumber": "0xc2a1699",
          "transactionHash": "0xf233abc847ee8cf17dc9c8745e16fa163b72d06ad875f3ff2a4aeba24ca6a2f2",
          "transactionIndex": "0x1",
          "logIndex": "0x0",
          "removed": false
        }
      ],
      "status": "0x1",
      "logsBloom": "0x00200000000000000000000000000000000000000000000000000000000000000000000000000000000000000000000000000000000000000000000000000000000000000000000000000000000000000000000000000000020000000000000002000000000000000000000000000000000000000000000000000000000000400000000002000008000000000000000000000000000000000000000000000000000000000000000000000000000000000000000000000000000000000000000000000000000000000000000000000000000000000000000000000000000000000000000000000000000000000000000000000000000000000000000000000000",
      "type": "0x0",
      "effectiveGasPrice": "0x989680"
    }
  ],
  "libraries": [],
  "pending": [],
  "returns": {},
  "timestamp": 1713897758,
  "chain": 42161,
  "multi": false,
  "commit": "82af829"
}