{
  "transactions": [
    {
      "hash": null,
      "transactionType": "CREATE",
      "contractName": "DeployFeeStrategy",
      "contractAddress": "0x5b73C5498c1E3b4dbA84de0F1833c4a029d90519",
      "function": null,
      "arguments": null,
      "transaction": {
        "type": "0x00",
        "from": "0x1804c8ab1f12e6bbf3894d4083f33e07309d1f38",
        "gas": "0x78c56c",
        "value": "0x0",
        "data": "0x608060405234801561001057600080fd5b5061001a3361001f565b61006f565b600080546001600160a01b038381166001600160a01b0319831681178455604051919092169283917f8be0079c531659141344cd1fd0a4f28419497f9722a3daafe3b4186f6b6457e09190a35050565b61058f8061007e6000396000f3fe608060405234801561001057600080fd5b50600436106100835760003560e01c80630b964988146100885780634328ea43146100bb57806356c2d309146100ee578063715018a614610103578063766990951461010b5780638da5cb5b1461011e57806395958ab514610133578063a7fa088b14610146578063f2fde38b1461014f575b600080fd5b6100a8610096366004610477565b60026020526000908152604090205481565b6040519081526020015b60405180910390f35b6100de6100c9366004610477565b60016020526000908152604090205460ff1681565b60405190151581526020016100b2565b6101016100fc366004610499565b610162565b005b6101016101d5565b6100a86101193660046104c3565b6101e9565b610126610262565b6040516100b291906104f6565b610101610141366004610499565b610271565b6100a861271081565b61010161015d366004610477565b610333565b61016a6103ac565b6001600160a01b0382166000908152600160208190526040909120805460ff1916909117905561019a8282610271565b7f969cf6acb76f10dc15d6ac6a3d7e9ef65e8680dcfe5f4fb9b73624067dc49543826040516101c991906104f6565b60405180910390a15050565b6101dd6103ac565b6101e7600061040b565b565b6001600160a01b038316600090815260026020908152604080832054600190925282205460ff16610238578460405163010e87b960e51b815260040161022f91906104f6565b60405180910390fd5b610245612710606461050a565b61024f848361050a565b6102599190610537565b95945050505050565b6000546001600160a01b031690565b6102796103ac565b610286612710606461050a565b81106102e25760405162461bcd60e51b815260206004820152602560248201527f4665652070657263656e746167652063616e6e6f742062652031303025206f72604482015264206d6f726560d81b606482015260840161022f565b6001600160a01b038216600081815260026020908152604091829020849055815192835282018390527fa12973bd1c09e4ec46288dc2a7ccb9b337e197c7ffad7a179ecae62a90830afd91016101c9565b61033b6103ac565b6001600160a01b0381166103a05760405162461bcd60e51b815260206004820152602660248201527f4f776e61626c653a206e6577206f776e657220697320746865207a65726f206160448201526564647265737360d01b606482015260840161022f565b6103a98161040b565b50565b336103b5610262565b6001600160a01b0316146101e75760405162461bcd60e51b815260206004820181905260248201527f4f776e61626c653a2063616c6c6572206973206e6f7420746865206f776e6572604482015260640161022f565b600080546001600160a01b038381166001600160a01b0319831681178455604051919092169283917f8be0079c531659141344cd1fd0a4f28419497f9722a3daafe3b4186f6b6457e09190a35050565b80356001600160a01b038116811461047257600080fd5b919050565b60006020828403121561048957600080fd5b6104928261045b565b9392505050565b600080604083850312156104ac57600080fd5b6104b58361045b565b946020939093013593505050565b6000806000606084860312156104d857600080fd5b6104e18461045b565b95602085013595506040909401359392505050565b6001600160a01b0391909116815260200190565b600081600019048311821515161561053257634e487b7160e01b600052601160045260246000fd5b500290565b60008261055457634e487b7160e01b600052601260045260246000fd5b50049056fea2646970667358221220062e507871ca5d5fb1abc3c3820f2f37fbd7b54d9f046545e4c67dabb861e1d764736f6c634300080f0033",
        "nonce": "0x2"
      },
      "additionalContracts": [],
      "isFixedGasLimit": false
    },
    {
      "hash": null,
      "transactionType": "CALL",
      "contractName": "DopexV2ClammFeeStrategyV2",
      "contractAddress": "0x34A1D3fff3958843C43aD80F30b94c510645C316",
      "function": "registerOptionMarket(address,uint256)",
      "arguments": [
        "0x501B03BdB431154b8Df17BF1c00756E3a8F21744",
        "340000"
      ],
      "transaction": {
        "type": "0x00",
        "from": "0x1804c8ab1f12e6bbf3894d4083f33e07309d1f38",
        "to": "0x34a1d3fff3958843c43ad80f30b94c510645c316",
        "gas": "0x12b34a",
        "value": "0x0",
        "data": "0x56c2d309000000000000000000000000501b03bdb431154b8df17bf1c00756e3a8f217440000000000000000000000000000000000000000000000000000000000053020",
        "nonce": "0x3"
      },
      "additionalContracts": [],
      "isFixedGasLimit": false
    },
    {
      "hash": null,
      "transactionType": "CALL",
      "contractName": "DopexV2ClammFeeStrategyV2",
      "contractAddress": "0x34A1D3fff3958843C43aD80F30b94c510645C316",
      "function": "registerOptionMarket(address,uint256)",
      "arguments": [
        "0x550e7E236912DaA302F7d5D0d6e5D7b6EF191f04",
        "340000"
      ],
      "transaction": {
        "type": "0x00",
        "from": "0x1804c8ab1f12e6bbf3894d4083f33e07309d1f38",
        "to": "0x34a1d3fff3958843c43ad80f30b94c510645c316",
        "gas": "0x12b34a",
        "value": "0x0",
        "data": "0x56c2d309000000000000000000000000550e7e236912daa302f7d5d0d6e5d7b6ef191f040000000000000000000000000000000000000000000000000000000000053020",
        "nonce": "0x4"
      },
      "additionalContracts": [],
      "isFixedGasLimit": false
    },
    {
      "hash": null,
      "transactionType": "CALL",
      "contractName": "DopexV2ClammFeeStrategyV2",
      "contractAddress": "0x34A1D3fff3958843C43aD80F30b94c510645C316",
      "function": "registerOptionMarket(address,uint256)",
      "arguments": [
        "0x4eed3A2b797Bf5630517EcCe2e31C1438A76bb92",
        "340000"
      ],
      "transaction": {
        "type": "0x00",
        "from": "0x1804c8ab1f12e6bbf3894d4083f33e07309d1f38",
        "to": "0x34a1d3fff3958843c43ad80f30b94c510645c316",
        "gas": "0x12b34a",
        "value": "0x0",
        "data": "0x56c2d3090000000000000000000000004eed3a2b797bf5630517ecce2e31c1438a76bb920000000000000000000000000000000000000000000000000000000000053020",
        "nonce": "0x5"
      },
      "additionalContracts": [],
      "isFixedGasLimit": false
    }
  ],
  "receipts": [],
  "libraries": [],
  "pending": [],
  "returns": {},
  "timestamp": 1708602781,
  "chain": 42161,
  "multi": false,
  "commit": "e088943"
}