{
  "transactions": [
    {
      "hash": "0xfd9277f0af8e31df1baff4d03e1266c79ee0b2349456c00bb10c0253ade0f398",
      "transactionType": "CALL",
      "contractName": null,
      "contractAddress": "0xBb1cF6f913DE129900faefb7FBDa2e247A7f22aF",
      "function": "registerOptionMarket(address,uint256)",
      "arguments": [
        "0x1D5DE630BbBF68c9bf17D8462605227D79eA910C",
        "340000"
      ],
      "transaction": {
        "type": "0x00",
        "from": "0xee82496d3ed1f5afbeb9b29f3f59289fd899d9d0",
        "to": "0xbb1cf6f913de129900faefb7fbda2e247a7f22af",
        "gas": "0x1812b",
        "value": "0x0",
        "data": "0x56c2d3090000000000000000000000001d5de630bbbf68c9bf17d8462605227d79ea910c0000000000000000000000000000000000000000000000000000000000053020",
        "nonce": "0x20"
      },
      "additionalContracts": [],
      "isFixedGasLimit": false
    },
    {
      "hash": null,
      "transactionType": "CALL",
      "contractName": null,
      "contractAddress": "0xBb1cF6f913DE129900faefb7FBDa2e247A7f22aF",
      "function": "registerOptionMarket(address,uint256)",
      "arguments": [
        "0x50d31b053c3a099b2CAE50eb63848ECcF87D72Df",
        "340000"
      ],
      "transaction": {
        "type": "0x00",
        "from": "0xee82496d3ed1f5afbeb9b29f3f59289fd899d9d0",
        "to": "0xbb1cf6f913de129900faefb7fbda2e247a7f22af",
        "gas": "0x1812b",
        "value": "0x0",
        "data": "0x56c2d30900000000000000000000000050d31b053c3a099b2cae50eb63848eccf87d72df0000000000000000000000000000000000000000000000000000000000053020",
        "nonce": "0x21"
      },
      "additionalContracts": [],
      "isFixedGasLimit": false
    },
    {
      "hash": null,
      "transactionType": "CALL",
      "contractName": null,
      "contractAddress": "0xBb1cF6f913DE129900faefb7FBDa2e247A7f22aF",
      "function": "registerOptionMarket(address,uint256)",
      "arguments": [
        "0xcDA890C42365dCb1A8a1079F2f47379Ad620bC99",
        "340000"
      ],
      "transaction": {
        "type": "0x00",
        "from": "0xee82496d3ed1f5afbeb9b29f3f59289fd899d9d0",
        "to": "0xbb1cf6f913de129900faefb7fbda2e247a7f22af",
        "gas": "0x1812b",
        "value": "0x0",
        "data": "0x56c2d309000000000000000000000000cda890c42365dcb1a8a1079f2f47379ad620bc990000000000000000000000000000000000000000000000000000000000053020",
        "nonce": "0x22"
      },
      "additionalContracts": [],
      "isFixedGasLimit": false
    }
  ],
  "receipts": [],
  "libraries": [],
  "pending": [
    "0xfd9277f0af8e31df1baff4d03e1266c79ee0b2349456c00bb10c0253ade0f398"
  ],
  "returns": {},
  "timestamp": 1709572630,
  "chain": 5000,
  "multi": false,
  "commit": "82af829"
}