{
  "transactions": [
    {
      "hash": "0x30d28ef9991f32a4a0b6fec310e4e8e354d25d6da813112f35b5a8f9fb1578e0",
      "transactionType": "CALL",
      "contractName": null,
      "contractAddress": "0xBb1cF6f913DE129900faefb7FBDa2e247A7f22aF",
      "function": "registerOptionMarket(address,uint256)",
      "arguments": [
        "0x50d31b053c3a099b2CAE50eb63848ECcF87D72Df",
        "340000"
      ],
      "transaction": {
        "type": "0x00",
        "from": "0xee82496d3ed1f5afbeb9b29f3f59289fd899d9d0",
        "to": "0xbb1cf6f913de129900faefb7fbda2e247a7f22af",
        "gas": "0x1812b",
        "value": "0x0",
        "data": "0x56c2d30900000000000000000000000050d31b053c3a099b2cae50eb63848eccf87d72df0000000000000000000000000000000000000000000000000000000000053020",
        "nonce": "0x21"
      },
      "additionalContracts": [],
      "isFixedGasLimit": false
    },
    {
      "hash": "0x37e3427730ba84fea6ede88eb7c421b0baf9201971aec9a83689e8967fc82b3a",
      "transactionType": "CALL",
      "contractName": null,
      "contractAddress": "0xBb1cF6f913DE129900faefb7FBDa2e247A7f22aF",
      "function": "registerOptionMarket(address,uint256)",
      "arguments": [
        "0xcDA890C42365dCb1A8a1079F2f47379Ad620bC99",
        "340000"
      ],
      "transaction": {
        "type": "0x00",
        "from": "0xee82496d3ed1f5afbeb9b29f3f59289fd899d9d0",
        "to": "0xbb1cf6f913de129900faefb7fbda2e247a7f22af",
        "gas": "0x1812b",
        "value": "0x0",
        "data": "0x56c2d309000000000000000000000000cda890c42365dcb1a8a1079f2f47379ad620bc990000000000000000000000000000000000000000000000000000000000053020",
        "nonce": "0x22"
      },
      "additionalContracts": [],
      "isFixedGasLimit": false
    }
  ],
  "receipts": [
    {
      "transactionHash": "0x30d28ef9991f32a4a0b6fec310e4e8e354d25d6da813112f35b5a8f9fb1578e0",
      "transactionIndex": "0x0",
      "blockHash": "0x168ff796fc4ca730c7cec89489abde56f1e4ca9f6c146611c993f287196a37ff",
      "blockNumber": "0x3882b86",
      "from": "0xEE82496D3ed1f5AFbEB9B29f3f59289fd899d9D0",
      "to": "0xBb1cF6f913DE129900faefb7FBDa2e247A7f22aF",
      "cumulativeGasUsed": "0x116dc",
      "gasUsed": "0x116dc",
      "contractAddress": null,
      "logs": [
        {
          "address": "0xBb1cF6f913DE129900faefb7FBDa2e247A7f22aF",
          "topics": [
            "0xa12973bd1c09e4ec46288dc2a7ccb9b337e197c7ffad7a179ecae62a90830afd"
          ],
          "data": "0x00000000000000000000000050d31b053c3a099b2cae50eb63848eccf87d72df0000000000000000000000000000000000000000000000000000000000053020",
          "blockHash": "0x168ff796fc4ca730c7cec89489abde56f1e4ca9f6c146611c993f287196a37ff",
          "blockNumber": "0x3882b86",
          "transactionHash": "0x30d28ef9991f32a4a0b6fec310e4e8e354d25d6da813112f35b5a8f9fb1578e0",
          "transactionIndex": "0x0",
          "logIndex": "0x0",
          "removed": false
        },
        {
          "address": "0xBb1cF6f913DE129900faefb7FBDa2e247A7f22aF",
          "topics": [
            "0x969cf6acb76f10dc15d6ac6a3d7e9ef65e8680dcfe5f4fb9b73624067dc49543"
          ],
          "data": "0x00000000000000000000000050d31b053c3a099b2cae50eb63848eccf87d72df",
          "blockHash": "0x168ff796fc4ca730c7cec89489abde56f1e4ca9f6c146611c993f287196a37ff",
          "blockNumber": "0x3882b86",
          "transactionHash": "0x30d28ef9991f32a4a0b6fec310e4e8e354d25d6da813112f35b5a8f9fb1578e0",
          "transactionIndex": "0x0",
          "logIndex": "0x1",
          "removed": false
        }
      ],
      "status": "0x1",
      "logsBloom": "0x00000000000000000000000000000000000000000400000000000001000000000000000000000000000000000000000000400000000000000000000000000000000000000000000000000000000000000000000800000000000000000100000000000000000000000000000000002400000000000000000000080000000000000000000000000000000000000000000000000000000000000000000000000000000000000000000000000000000000000000000000000000000000000000000000000000000000000000000000000000000000000000000000000000000000000000000000000000000000000000000000000000000000000000000004000000"
    },
    {
      "transactionHash": "0x37e3427730ba84fea6ede88eb7c421b0baf9201971aec9a83689e8967fc82b3a",
      "transactionIndex": "0x0",
      "blockHash": "0xf202be5c03281dc44b8cde2b489bc161926b60cd1af77910b269b8b368a7d618",
      "blockNumber": "0x3882b87",
      "from": "0xEE82496D3ed1f5AFbEB9B29f3f59289fd899d9D0",
      "to": "0xBb1cF6f913DE129900faefb7FBDa2e247A7f22aF",
      "cumulativeGasUsed": "0x116dc",
      "gasUsed": "0x116dc",
      "contractAddress": null,
      "logs": [
        {
          "address": "0xBb1cF6f913DE129900faefb7FBDa2e247A7f22aF",
          "topics": [
            "0xa12973bd1c09e4ec46288dc2a7ccb9b337e197c7ffad7a179ecae62a90830afd"
          ],
          "data": "0x000000000000000000000000cda890c42365dcb1a8a1079f2f47379ad620bc990000000000000000000000000000000000000000000000000000000000053020",
          "blockHash": "0xf202be5c03281dc44b8cde2b489bc161926b60cd1af77910b269b8b368a7d618",
          "blockNumber": "0x3882b87",
          "transactionHash": "0x37e3427730ba84fea6ede88eb7c421b0baf9201971aec9a83689e8967fc82b3a",
          "transactionIndex": "0x0",
          "logIndex": "0x0",
          "removed": false
        },
        {
          "address": "0xBb1cF6f913DE129900faefb7FBDa2e247A7f22aF",
          "topics": [
            "0x969cf6acb76f10dc15d6ac6a3d7e9ef65e8680dcfe5f4fb9b73624067dc49543"
          ],
          "data": "0x000000000000000000000000cda890c42365dcb1a8a1079f2f47379ad620bc99",
          "blockHash": "0xf202be5c03281dc44b8cde2b489bc161926b60cd1af77910b269b8b368a7d618",
          "blockNumber": "0x3882b87",
          "transactionHash": "0x37e3427730ba84fea6ede88eb7c421b0baf9201971aec9a83689e8967fc82b3a",
          "transactionIndex": "0x0",
          "logIndex": "0x1",
          "removed": false
        }
      ],
      "status": "0x1",
      "logsBloom": "0x00000000000000000000000000000000000000000400000000000001000000000000000000000000000000000000000000400000000000000000000000000000000000000000000000000000000000000000000800000000000000000100000000000000000000000000000000002400000000000000000000080000000000000000000000000000000000000000000000000000000000000000000000000000000000000000000000000000000000000000000000000000000000000000000000000000000000000000000000000000000000000000000000000000000000000000000000000000000000000000000000000000000000000000000004000000"
    }
  ],
  "libraries": [],
  "pending": [],
  "returns": {},
  "timestamp": 1709572658,
  "chain": 5000,
  "multi": false,
  "commit": "82af829"
}