{
  "transactions": [
    {
      "hash": "0x1b50f21f869613f1deb45dada8359af2f38f3646521ee69ed8699d5f9577ecf8",
      "transactionType": "CALL",
      "contractName": null,
      "contractAddress": "0xf24c12926c8bf7d4d0c6443583766c6d0ebcd74f",
      "function": "updateIVSetter(address,bool)",
      "arguments": [
        "0x04A492F02Aa52cC0f1B1D3eD43bFeE17244eEd2a",
        "true"
      ],
      "transaction": {
        "from": "0x615443c734716338039dff118e88dd050d1d9960",
        "to": "0xf24c12926c8bf7d4d0c6443583766c6d0ebcd74f",
        "gas": "0xfabb",
        "value": "0x0",
        "input": "0x2ae0d14100000000000000000000000004a492f02aa52cc0f1b1d3ed43bfee17244eed2a0000000000000000000000000000000000000000000000000000000000000001",
        "nonce": "0x10",
        "chainId": "0x2105"
      },
      "additionalContracts": [],
      "isFixedGasLimit": false
    },
    {
      "hash": "0x346f762606cc79c75f95a592b006d91be10886f1d9ebd073e28b566a7e35c4d6",
      "transactionType": "CALL",
      "contractName": null,
      "contractAddress": "0xb97aa593dde7d2657e55a17336962d2d34f05265",
      "function": "updateIVSetter(address,bool)",
      "arguments": [
        "0x04A492F02Aa52cC0f1B1D3eD43bFeE17244eEd2a",
        "true"
      ],
      "transaction": {
        "from": "0x615443c734716338039dff118e88dd050d1d9960",
        "to": "0xb97aa593dde7d2657e55a17336962d2d34f05265",
        "gas": "0xfabb",
        "value": "0x0",
        "input": "0x2ae0d14100000000000000000000000004a492f02aa52cc0f1b1d3ed43bfee17244eed2a0000000000000000000000000000000000000000000000000000000000000001",
        "nonce": "0x11",
        "chainId": "0x2105"
      },
      "additionalContracts": [],
      "isFixedGasLimit": false
    }
  ],
  "receipts": [
    {
      "status": "0x1",
      "cumulativeGasUsed": "0x1654187",
      "logs": [],
      "logsBloom": "0x00000000000000000000000000000000000000000000000000000000000000000000000000000000000000000000000000000000000000000000000000000000000000000000000000000000000000000000000000000000000000000000000000000000000000000000000000000000000000000000000000000000000000000000000000000000000000000000000000000000000000000000000000000000000000000000000000000000000000000000000000000000000000000000000000000000000000000000000000000000000000000000000000000000000000000000000000000000000000000000000000000000000000000000000000000000",
      "type": "0x2",
      "transactionHash": "0x1b50f21f869613f1deb45dada8359af2f38f3646521ee69ed8699d5f9577ecf8",
      "transactionIndex": "0x7d",
      "blockHash": "0xd5188c848f1254be6a09f35f57f182fa721c52d2286df23ac5a7f3994f1806ae",
      "blockNumber": "0x1744140",
      "gasUsed": "0xb587",
      "effectiveGasPrice": "0x9ab5ae",
      "from": "0x615443c734716338039dff118e88dd050d1d9960",
      "to": "0xf24c12926c8bf7d4d0c6443583766c6d0ebcd74f",
      "contractAddress": null,
      "l1BaseFeeScalar": "0x8",
      "l1BlobBaseFee": "0x3dd1098c99",
      "l1BlobBaseFeeScalar": "0x0",
      "l1Fee": "0xa1eafa6",
      "l1GasPrice": "0x3169d5acf",
      "l1GasUsed": "0x640"
    },
    {
      "status": "0x1",
      "cumulativeGasUsed": "0x16add5c",
      "logs": [],
      "logsBloom": "0x00000000000000000000000000000000000000000000000000000000000000000000000000000000000000000000000000000000000000000000000000000000000000000000000000000000000000000000000000000000000000000000000000000000000000000000000000000000000000000000000000000000000000000000000000000000000000000000000000000000000000000000000000000000000000000000000000000000000000000000000000000000000000000000000000000000000000000000000000000000000000000000000000000000000000000000000000000000000000000000000000000000000000000000000000000000",
      "type": "0x2",
      "transactionHash": "0x346f762606cc79c75f95a592b006d91be10886f1d9ebd073e28b566a7e35c4d6",
      "transactionIndex": "0x80",
      "blockHash": "0xd5188c848f1254be6a09f35f57f182fa721c52d2286df23ac5a7f3994f1806ae",
      "blockNumber": "0x1744140",
      "gasUsed": "0xb587",
      "effectiveGasPrice": "0x9ab5ae",
      "from": "0x615443c734716338039dff118e88dd050d1d9960",
      "to": "0xb97aa593dde7d2657e55a17336962d2d34f05265",
      "contractAddress": null,
      "l1BaseFeeScalar": "0x8",
      "l1BlobBaseFee": "0x3dd1098c99",
      "l1BlobBaseFeeScalar": "0x0",
      "l1Fee": "0xa1eafa6",
      "l1GasPrice": "0x3169d5acf",
      "l1GasUsed": "0x640"
    }
  ],
  "libraries": [],
  "pending": [],
  "returns": {},
  "timestamp": 1735581541,
  "chain": 8453,
  "commit": "f047cfb"
}