{
  "transactions": [
    {
      "hash": "0x050d13c7fc9862c65f1c2639fce22bb1eaeac754f951ac02d2c488734ceb658b",
      "transactionType": "CALL",
      "contractName": null,
      "contractAddress": "0xcDA890C42365dCb1A8a1079F2f47379Ad620bC99",
      "function": "updateAddress(address,address,address,address,address,bool,address,bool)",
      "arguments": [
        "0x5674Ce0Dbb2B5973aB768fB40938524da927A459",
        "0x0000000000000000000000000000000000000000",
        "0xBb1cF6f913DE129900faefb7FBDa2e247A7f22aF",
        "0x764fA09d0B3de61EeD242099BD9352C1C61D3d27",
        "0x7328908702DD919bC597a5291B4714b689d06b7A",
        "true",
        "0xD801D457D9cC70f6018a62885F03BB70706F59Cc",
        "true"
      ],
      "transaction": {
        "type": "0x00",
        "from": "0xee82496d3ed1f5afbeb9b29f3f59289fd899d9d0",
        "to": "0xcda890c42365dcb1a8a1079f2f47379ad620bc99",
        "gas": "0x1d583",
        "value": "0x0",
        "data": "0xc35ca6120000000000000000000000005674ce0dbb2b5973ab768fb40938524da927a4590000000000000000000000000000000000000000000000000000000000000000000000000000000000000000bb1cf6f913de129900faefb7fbda2e247a7f22af000000000000000000000000764fa09d0b3de61eed242099bd9352c1c61d3d270000000000000000000000007328908702dd919bc597a5291b4714b689d06b7a0000000000000000000000000000000000000000000000000000000000000001000000000000000000000000d801d457d9cc70f6018a62885f03bb70706f59cc0000000000000000000000000000000000000000000000000000000000000001",
        "nonce": "0x1f"
      },
      "additionalContracts": [],
      "isFixedGasLimit": false
    }
  ],
  "receipts": [],
  "libraries": [],
  "pending": [
    "0x050d13c7fc9862c65f1c2639fce22bb1eaeac754f951ac02d2c488734ceb658b"
  ],
  "returns": {},
  "timestamp": 1709572348,
  "chain": 5000,
  "multi": false,
  "commit": "82af829"
}