{
  "transactions": [
    {
      "hash": "0xd2cf34a929f81d8c970df2c1fb5342bfc322d32635269b516a597371121ecf62",
      "transactionType": "CALL",
      "contractName": null,
      "contractAddress": "0xE4bA6740aF4c666325D49B3112E4758371386aDc",
      "function": "updateWhitelistHandlerWithApp(address,address,bool)",
      "arguments": [
        "0x5DdA827f304Aeb693573720B344eD160e7D4703C",
        "0x1D5DE630BbBF68c9bf17D8462605227D79eA910C",
        "true"
      ],
      "transaction": {
        "type": "0x00",
        "from": "0xee82496d3ed1f5afbeb9b29f3f59289fd899d9d0",
        "to": "0xe4ba6740af4c666325d49b3112e4758371386adc",
        "gas": "0x106ff",
        "value": "0x0",
        "data": "0x5ab70f560000000000000000000000005dda827f304aeb693573720b344ed160e7d4703c0000000000000000000000001d5de630bbbf68c9bf17d8462605227d79ea910c0000000000000000000000000000000000000000000000000000000000000001",
        "nonce": "0xe"
      },
      "additionalContracts": [],
      "isFixedGasLimit": false
    },
    {
      "hash": "0xa04962bd24bdaa3411d72f12836fadf4acfcadfb8171177ce244f2ed1b9af105",
      "transactionType": "CALL",
      "contractName": null,
      "contractAddress": "0xE4bA6740aF4c666325D49B3112E4758371386aDc",
      "function": "updateWhitelistHandlerWithApp(address,address,bool)",
      "arguments": [
        "0x210D2963b555Ce5AC7e3d9b0e2F38d7AEBd4B43F",
        "0x1D5DE630BbBF68c9bf17D8462605227D79eA910C",
        "true"
      ],
      "transaction": {
        "type": "0x00",
        "from": "0xee82496d3ed1f5afbeb9b29f3f59289fd899d9d0",
        "to": "0xe4ba6740af4c666325d49b3112e4758371386adc",
        "gas": "0x106ff",
        "value": "0x0",
        "data": "0x5ab70f56000000000000000000000000210d2963b555ce5ac7e3d9b0e2f38d7aebd4b43f0000000000000000000000001d5de630bbbf68c9bf17d8462605227d79ea910c0000000000000000000000000000000000000000000000000000000000000001",
        "nonce": "0xf"
      },
      "additionalContracts": [],
      "isFixedGasLimit": false
    },
    {
      "hash": "0x151aee44482b786d8941ef048bb36658dfb8b3d6d238812e7324f9de5ce78d01",
      "transactionType": "CALL",
      "contractName": null,
      "contractAddress": "0xE4bA6740aF4c666325D49B3112E4758371386aDc",
      "function": "updateWhitelistHandlerWithApp(address,address,bool)",
      "arguments": [
        "0xD648267FC75e144f28436E7b54030C7466031b05",
        "0x1D5DE630BbBF68c9bf17D8462605227D79eA910C",
        "true"
      ],
      "transaction": {
        "type": "0x00",
        "from": "0xee82496d3ed1f5afbeb9b29f3f59289fd899d9d0",
        "to": "0xe4ba6740af4c666325d49b3112e4758371386adc",
        "gas": "0x106ff",
        "value": "0x0",
        "data": "0x5ab70f56000000000000000000000000d648267fc75e144f28436e7b54030c7466031b050000000000000000000000001d5de630bbbf68c9bf17d8462605227d79ea910c0000000000000000000000000000000000000000000000000000000000000001",
        "nonce": "0x10"
      },
      "additionalContracts": [],
      "isFixedGasLimit": false
    }
  ],
  "receipts": [
    {
      "transactionHash": "0xd2cf34a929f81d8c970df2c1fb5342bfc322d32635269b516a597371121ecf62",
      "transactionIndex": "0x0",
      "blockHash": "0x4d76119799ba6b8b3679dca68118b12ccb3bb8ef7314ba216a89c473b8f975cc",
      "blockNumber": "0x388218d",
      "from": "0xEE82496D3ed1f5AFbEB9B29f3f59289fd899d9D0",
      "to": "0xE4bA6740aF4c666325D49B3112E4758371386aDc",
      "cumulativeGasUsed": "0xbe68",
      "gasUsed": "0xbe68",
      "contractAddress": null,
      "logs": [
        {
          "address": "0xE4bA6740aF4c666325D49B3112E4758371386aDc",
          "topics": [
            "0xdb7869e7b3ce14388c8d68c7590a2ec6f7cc0a26d12c7c3c58e1927c7520e264"
          ],
          "data": "0x0000000000000000000000005dda827f304aeb693573720b344ed160e7d4703c0000000000000000000000001d5de630bbbf68c9bf17d8462605227d79ea910c0000000000000000000000000000000000000000000000000000000000000001",
          "blockHash": "0x4d76119799ba6b8b3679dca68118b12ccb3bb8ef7314ba216a89c473b8f975cc",
          "blockNumber": "0x388218d",
          "transactionHash": "0xd2cf34a929f81d8c970df2c1fb5342bfc322d32635269b516a597371121ecf62",
          "transactionIndex": "0x0",
          "logIndex": "0x0",
          "removed": false
        }
      ],
      "status": "0x1",
      "logsBloom": "0x00000000000000000000000000000000000000000000000000004000000000000000000000000000000000000000000000000000000080000000000000000000000000000000000000000000000000000010000000000000000000000000000000000000000000000000000000000000000000000000000000000000000000000000000000000000000000000000000000000000000000000000000000000000000000000000000000000000000000000000000000000000000000000000000000000000000000000002000000000000000000000000000000000000000000000000000000000000001000000000000000000000000000000000000000000004"
    },
    {
      "transactionHash": "0xa04962bd24bdaa3411d72f12836fadf4acfcadfb8171177ce244f2ed1b9af105",
      "transactionIndex": "0x0",
      "blockHash": "0x70db5d9965f01f6017602c335f3862353838566977fd450537f87a316cdd3a50",
      "blockNumber": "0x388218e",
      "from": "0xEE82496D3ed1f5AFbEB9B29f3f59289fd899d9D0",
      "to": "0xE4bA6740aF4c666325D49B3112E4758371386aDc",
      "cumulativeGasUsed": "0xbe68",
      "gasUsed": "0xbe68",
      "contractAddress": null,
      "logs": [
        {
          "address": "0xE4bA6740aF4c666325D49B3112E4758371386aDc",
          "topics": [
            "0xdb7869e7b3ce14388c8d68c7590a2ec6f7cc0a26d12c7c3c58e1927c7520e264"
          ],
          "data": "0x000000000000000000000000210d2963b555ce5ac7e3d9b0e2f38d7aebd4b43f0000000000000000000000001d5de630bbbf68c9bf17d8462605227d79ea910c0000000000000000000000000000000000000000000000000000000000000001",
          "blockHash": "0x70db5d9965f01f6017602c335f3862353838566977fd450537f87a316cdd3a50",
          "blockNumber": "0x388218e",
          "transactionHash": "0xa04962bd24bdaa3411d72f12836fadf4acfcadfb8171177ce244f2ed1b9af105",
          "transactionIndex": "0x0",
          "logIndex": "0x0",
          "removed": false
        }
      ],
      "status": "0x1",
      "logsBloom": "0x00000000000000000000000000000000000000000000000000004000000000000000000000000000000000000000000000000000000080000000000000000000000000000000000000000000000000000010000000000000000000000000000000000000000000000000000000000000000000000000000000000000000000000000000000000000000000000000000000000000000000000000000000000000000000000000000000000000000000000000000000000000000000000000000000000000000000000002000000000000000000000000000000000000000000000000000000000000001000000000000000000000000000000000000000000004"
    },
    {
      "transactionHash": "0x151aee44482b786d8941ef048bb36658dfb8b3d6d238812e7324f9de5ce78d01",
      "transactionIndex": "0x0",
      "blockHash": "0x3d145a4311875d54b62a46279e4e97624da607d466102329fec92d9795d1a097",
      "blockNumber": "0x388218f",
      "from": "0xEE82496D3ed1f5AFbEB9B29f3f59289fd899d9D0",
      "to": "0xE4bA6740aF4c666325D49B3112E4758371386aDc",
      "cumulativeGasUsed": "0xbe68",
      "gasUsed": "0xbe68",
      "contractAddress": null,
      "logs": [
        {
          "address": "0xE4bA6740aF4c666325D49B3112E4758371386aDc",
          "topics": [
            "0xdb7869e7b3ce14388c8d68c7590a2ec6f7cc0a26d12c7c3c58e1927c7520e264"
          ],
          "data": "0x000000000000000000000000d648267fc75e144f28436e7b54030c7466031b050000000000000000000000001d5de630bbbf68c9bf17d8462605227d79ea910c0000000000000000000000000000000000000000000000000000000000000001",
          "blockHash": "0x3d145a4311875d54b62a46279e4e97624da607d466102329fec92d9795d1a097",
          "blockNumber": "0x388218f",
          "transactionHash": "0x151aee44482b786d8941ef048bb36658dfb8b3d6d238812e7324f9de5ce78d01",
          "transactionIndex": "0x0",
          "logIndex": "0x0",
          "removed": false
        }
      ],
      "status": "0x1",
      "logsBloom": "0x00000000000000000000000000000000000000000000000000004000000000000000000000000000000000000000000000000000000080000000000000000000000000000000000000000000000000000010000000000000000000000000000000000000000000000000000000000000000000000000000000000000000000000000000000000000000000000000000000000000000000000000000000000000000000000000000000000000000000000000000000000000000000000000000000000000000000000002000000000000000000000000000000000000000000000000000000000000001000000000000000000000000000000000000000000004"
    }
  ],
  "libraries": [],
  "pending": [],
  "returns": {},
  "timestamp": 1709570406,
  "chain": 5000,
  "multi": false,
  "commit": "82af829"
}