{
  "transactions": [
    {
      "hash": "0xb2a76a2910e6f0c404e9f082fe931fdcaff56ce47455d1aad83bf93ec63f516a",
      "transactionType": "CALL",
      "contractName": null,
      "contractAddress": "0x50d31b053c3a099b2CAE50eb63848ECcF87D72Df",
      "function": "updateAddress(address,address,address,address,address,bool,address,bool)",
      "arguments": [
        "0x5674Ce0Dbb2B5973aB768fB40938524da927A459",
        "0x0000000000000000000000000000000000000000",
        "0xBb1cF6f913DE129900faefb7FBDa2e247A7f22aF",
        "0x764fA09d0B3de61EeD242099BD9352C1C61D3d27",
        "0x1041fB8Ab01D6E979601d5eC753E8A717B3d459d",
        "true",
        "0x01845ec86909006758DE0D57957D88Da10bf5809",
        "true"
      ],
      "transaction": {
        "type": "0x00",
        "from": "0xee82496d3ed1f5afbeb9b29f3f59289fd899d9d0",
        "to": "0x50d31b053c3a099b2cae50eb63848eccf87d72df",
        "gas": "0x24234",
        "value": "0x0",
        "data": "0xc35ca6120000000000000000000000005674ce0dbb2b5973ab768fb40938524da927a4590000000000000000000000000000000000000000000000000000000000000000000000000000000000000000bb1cf6f913de129900faefb7fbda2e247a7f22af000000000000000000000000764fa09d0b3de61eed242099bd9352c1c61d3d270000000000000000000000001041fb8ab01d6e979601d5ec753e8a717b3d459d000000000000000000000000000000000000000000000000000000000000000100000000000000000000000001845ec86909006758de0d57957d88da10bf58090000000000000000000000000000000000000000000000000000000000000001",
        "nonce": "0x17"
      },
      "additionalContracts": [],
      "isFixedGasLimit": false
    },
    {
      "hash": null,
      "transactionType": "CALL",
      "contractName": null,
      "contractAddress": "0x50d31b053c3a099b2CAE50eb63848ECcF87D72Df",
      "function": "updateAddress(address,address,address,address,address,bool,address,bool)",
      "arguments": [
        "0x5674Ce0Dbb2B5973aB768fB40938524da927A459",
        "0x0000000000000000000000000000000000000000",
        "0xBb1cF6f913DE129900faefb7FBDa2e247A7f22aF",
        "0x764fA09d0B3de61EeD242099BD9352C1C61D3d27",
        "0x3f4BC1FFADb1435F19909D31588F4ce12bC0e452",
        "true",
        "0x01845ec86909006758DE0D57957D88Da10bf5809",
        "true"
      ],
      "transaction": {
        "type": "0x00",
        "from": "0xee82496d3ed1f5afbeb9b29f3f59289fd899d9d0",
        "to": "0x50d31b053c3a099b2cae50eb63848eccf87d72df",
        "gas": "0x16b77",
        "value": "0x0",
        "data": "0xc35ca6120000000000000000000000005674ce0dbb2b5973ab768fb40938524da927a4590000000000000000000000000000000000000000000000000000000000000000000000000000000000000000bb1cf6f913de129900faefb7fbda2e247a7f22af000000000000000000000000764fa09d0b3de61eed242099bd9352c1c61d3d270000000000000000000000003f4bc1ffadb1435f19909d31588f4ce12bc0e452000000000000000000000000000000000000000000000000000000000000000100000000000000000000000001845ec86909006758de0d57957d88da10bf58090000000000000000000000000000000000000000000000000000000000000001",
        "nonce": "0x18"
      },
      "additionalContracts": [],
      "isFixedGasLimit": false
    },
    {
      "hash": null,
      "transactionType": "CALL",
      "contractName": null,
      "contractAddress": "0x50d31b053c3a099b2CAE50eb63848ECcF87D72Df",
      "function": "updateAddress(address,address,address,address,address,bool,address,bool)",
      "arguments": [
        "0x5674Ce0Dbb2B5973aB768fB40938524da927A459",
        "0x0000000000000000000000000000000000000000",
        "0xBb1cF6f913DE129900faefb7FBDa2e247A7f22aF",
        "0x764fA09d0B3de61EeD242099BD9352C1C61D3d27",
        "0x7328908702DD919bC597a5291B4714b689d06b7A",
        "true",
        "0xB301c86b37801ee31448fE09EF271279f6F0B068",
        "true"
      ],
      "transaction": {
        "type": "0x00",
        "from": "0xee82496d3ed1f5afbeb9b29f3f59289fd899d9d0",
        "to": "0x50d31b053c3a099b2cae50eb63848eccf87d72df",
        "gas": "0x1d583",
        "value": "0x0",
        "data": "0xc35ca6120000000000000000000000005674ce0dbb2b5973ab768fb40938524da927a4590000000000000000000000000000000000000000000000000000000000000000000000000000000000000000bb1cf6f913de129900faefb7fbda2e247a7f22af000000000000000000000000764fa09d0b3de61eed242099bd9352c1c61d3d270000000000000000000000007328908702dd919bc597a5291b4714b689d06b7a0000000000000000000000000000000000000000000000000000000000000001000000000000000000000000b301c86b37801ee31448fe09ef271279f6f0b0680000000000000000000000000000000000000000000000000000000000000001",
        "nonce": "0x19"
      },
      "additionalContracts": [],
      "isFixedGasLimit": false
    }
  ],
  "receipts": [],
  "libraries": [],
  "pending": [
    "0xb2a76a2910e6f0c404e9f082fe931fdcaff56ce47455d1aad83bf93ec63f516a"
  ],
  "returns": {},
  "timestamp": 1709571367,
  "chain": 5000,
  "multi": false,
  "commit": "82af829"
}