{
  "transactions": [
    {
      "hash": "0x565b0a66d19365e6261967154034019424ee08cd684a31fe403e4c709b088853",
      "transactionType": "CALL",
      "contractName": null,
      "contractAddress": "0xE4bA6740aF4c666325D49B3112E4758371386aDc",
      "function": "updateWhitelistHandlerWithApp(address,address,bool)",
      "arguments": [
        "0xD648267FC75e144f28436E7b54030C7466031b05",
        "0xcDA890C42365dCb1A8a1079F2f47379Ad620bC99",
        "true"
      ],
      "transaction": {
        "type": "0x00",
        "from": "0xee82496d3ed1f5afbeb9b29f3f59289fd899d9d0",
        "to": "0xe4ba6740af4c666325d49b3112e4758371386adc",
        "gas": "0x106ff",
        "value": "0x0",
        "data": "0x5ab70f56000000000000000000000000d648267fc75e144f28436e7b54030c7466031b05000000000000000000000000cda890c42365dcb1a8a1079f2f47379ad620bc990000000000000000000000000000000000000000000000000000000000000001",
        "nonce": "0x1c"
      },
      "additionalContracts": [],
      "isFixedGasLimit": false
    }
  ],
  "receipts": [
    {
      "transactionHash": "0x565b0a66d19365e6261967154034019424ee08cd684a31fe403e4c709b088853",
      "transactionIndex": "0x0",
      "blockHash": "0x76000a598d011629bbf84a7ee8e3565d66792c4186cf13e99cb4b8efe38f3b80",
      "blockNumber": "0x3882961",
      "from": "0xEE82496D3ed1f5AFbEB9B29f3f59289fd899d9D0",
      "to": "0xE4bA6740aF4c666325D49B3112E4758371386aDc",
      "cumulativeGasUsed": "0xbe68",
      "gasUsed": "0xbe68",
      "contractAddress": null,
      "logs": [
        {
          "address": "0xE4bA6740aF4c666325D49B3112E4758371386aDc",
          "topics": [
            "0xdb7869e7b3ce14388c8d68c7590a2ec6f7cc0a26d12c7c3c58e1927c7520e264"
          ],
          "data": "0x000000000000000000000000d648267fc75e144f28436e7b54030c7466031b05000000000000000000000000cda890c42365dcb1a8a1079f2f47379ad620bc990000000000000000000000000000000000000000000000000000000000000001",
          "blockHash": "0x76000a598d011629bbf84a7ee8e3565d66792c4186cf13e99cb4b8efe38f3b80",
          "blockNumber": "0x3882961",
          "transactionHash": "0x565b0a66d19365e6261967154034019424ee08cd684a31fe403e4c709b088853",
          "transactionIndex": "0x0",
          "logIndex": "0x0",
          "removed": false
        }
      ],
      "status": "0x1",
      "logsBloom": "0x00000000000000000000000000000000000000000000000000004000000000000000000000000000000000000000000000000000000080000000000000000000000000000000000000000000000000000010000000000000000000000000000000000000000000000000000000000000000000000000000000000000000000000000000000000000000000000000000000000000000000000000000000000000000000000000000000000000000000000000000000000000000000000000000000000000000000000002000000000000000000000000000000000000000000000000000000000000001000000000000000000000000000000000000000000004"
    }
  ],
  "libraries": [],
  "pending": [],
  "returns": {},
  "timestamp": 1709572144,
  "chain": 5000,
  "multi": false,
  "commit": "82af829"
}