{
  "transactions": [
    {
      "hash": "0x3fd42a65625e5eab237b3d4352a478dbcd37153d30bf893c2a8b6018969fd15f",
      "transactionType": "CALL",
      "contractName": null,
      "contractAddress": "0x50d31b053c3a099b2CAE50eb63848ECcF87D72Df",
      "function": "updateAddress(address,address,address,address,address,bool,address,bool)",
      "arguments": [
        "0x5674Ce0Dbb2B5973aB768fB40938524da927A459",
        "0x0000000000000000000000000000000000000000",
        "0xBb1cF6f913DE129900faefb7FBDa2e247A7f22aF",
        "0x764fA09d0B3de61EeD242099BD9352C1C61D3d27",
        "0x3f4BC1FFADb1435F19909D31588F4ce12bC0e452",
        "true",
        "0x01845ec86909006758DE0D57957D88Da10bf5809",
        "true"
      ],
      "transaction": {
        "type": "0x00",
        "from": "0xee82496d3ed1f5afbeb9b29f3f59289fd899d9d0",
        "to": "0x50d31b053c3a099b2cae50eb63848eccf87d72df",
        "gas": "0x16b77",
        "value": "0x0",
        "data": "0xc35ca6120000000000000000000000005674ce0dbb2b5973ab768fb40938524da927a4590000000000000000000000000000000000000000000000000000000000000000000000000000000000000000bb1cf6f913de129900faefb7fbda2e247a7f22af000000000000000000000000764fa09d0b3de61eed242099bd9352c1c61d3d270000000000000000000000003f4bc1ffadb1435f19909d31588f4ce12bc0e452000000000000000000000000000000000000000000000000000000000000000100000000000000000000000001845ec86909006758de0d57957d88da10bf58090000000000000000000000000000000000000000000000000000000000000001",
        "nonce": "0x18"
      },
      "additionalContracts": [],
      "isFixedGasLimit": false
    },
    {
      "hash": "0xd3c03d63d6c980f27436a630c2cf92f9be376f2b101d888e581ab5538ba6e045",
      "transactionType": "CALL",
      "contractName": null,
      "contractAddress": "0x50d31b053c3a099b2CAE50eb63848ECcF87D72Df",
      "function": "updateAddress(address,address,address,address,address,bool,address,bool)",
      "arguments": [
        "0x5674Ce0Dbb2B5973aB768fB40938524da927A459",
        "0x0000000000000000000000000000000000000000",
        "0xBb1cF6f913DE129900faefb7FBDa2e247A7f22aF",
        "0x764fA09d0B3de61EeD242099BD9352C1C61D3d27",
        "0x7328908702DD919bC597a5291B4714b689d06b7A",
        "true",
        "0xB301c86b37801ee31448fE09EF271279f6F0B068",
        "true"
      ],
      "transaction": {
        "type": "0x00",
        "from": "0xee82496d3ed1f5afbeb9b29f3f59289fd899d9d0",
        "to": "0x50d31b053c3a099b2cae50eb63848eccf87d72df",
        "gas": "0x1d583",
        "value": "0x0",
        "data": "0xc35ca6120000000000000000000000005674ce0dbb2b5973ab768fb40938524da927a4590000000000000000000000000000000000000000000000000000000000000000000000000000000000000000bb1cf6f913de129900faefb7fbda2e247a7f22af000000000000000000000000764fa09d0b3de61eed242099bd9352c1c61d3d270000000000000000000000007328908702dd919bc597a5291b4714b689d06b7a0000000000000000000000000000000000000000000000000000000000000001000000000000000000000000b301c86b37801ee31448fe09ef271279f6f0b0680000000000000000000000000000000000000000000000000000000000000001",
        "nonce": "0x19"
      },
      "additionalContracts": [],
      "isFixedGasLimit": false
    }
  ],
  "receipts": [
    {
      "transactionHash": "0x3fd42a65625e5eab237b3d4352a478dbcd37153d30bf893c2a8b6018969fd15f",
      "transactionIndex": "0x0",
      "blockHash": "0xbeeda1c21d9a17404b1fbc3a840a03260bd1a50b63bef5f8707d86c0f3f8da80",
      "blockNumber": "0x388265b",
      "from": "0xEE82496D3ed1f5AFbEB9B29f3f59289fd899d9D0",
      "to": "0x50d31b053c3a099b2CAE50eb63848ECcF87D72Df",
      "cumulativeGasUsed": "0x10725",
      "gasUsed": "0x10725",
      "contractAddress": null,
      "logs": [
        {
          "address": "0x50d31b053c3a099b2CAE50eb63848ECcF87D72Df",
          "topics": [
            "0x318be759e0d069183ded0831e6c2119c16ced81a05e6da31c19c8c53d01bb9e2"
          ],
          "data": "0x0000000000000000000000000000000000000000000000000000000000000000000000000000000000000000bb1cf6f913de129900faefb7fbda2e247a7f22af000000000000000000000000764fa09d0b3de61eed242099bd9352c1c61d3d27",
          "blockHash": "0xbeeda1c21d9a17404b1fbc3a840a03260bd1a50b63bef5f8707d86c0f3f8da80",
          "blockNumber": "0x388265b",
          "transactionHash": "0x3fd42a65625e5eab237b3d4352a478dbcd37153d30bf893c2a8b6018969fd15f",
          "transactionIndex": "0x0",
          "logIndex": "0x0",
          "removed": false
        }
      ],
      "status": "0x1",
      "logsBloom": "0x00200000000000000000000000000000000000000000000000000000000000000000000000000000000000000000000000000000000000000000000000000000000000000000000000000000000000000000000000000000000000000000000002000000000800000000000000000000000000000000000000000000000000000000000000000008000000000000000000000002000000000000000000000000000000000000000000000000000000000000000000000000000000000000000000000000000000000000000000000000008000000000000000000000000000000000000000000000000000000000000000000000000000000000000000000000"
    },
    {
      "transactionHash": "0xd3c03d63d6c980f27436a630c2cf92f9be376f2b101d888e581ab5538ba6e045",
      "transactionIndex": "0x0",
      "blockHash": "0x47028657256c505d9015b0f602501c12e09560856962a431f69adc4611a8fdc5",
      "blockNumber": "0x388265c",
      "from": "0xEE82496D3ed1f5AFbEB9B29f3f59289fd899d9D0",
      "to": "0x50d31b053c3a099b2CAE50eb63848ECcF87D72Df",
      "cumulativeGasUsed": "0x153ec",
      "gasUsed": "0x153ec",
      "contractAddress": null,
      "logs": [
        {
          "address": "0x50d31b053c3a099b2CAE50eb63848ECcF87D72Df",
          "topics": [
            "0x318be759e0d069183ded0831e6c2119c16ced81a05e6da31c19c8c53d01bb9e2"
          ],
          "data": "0x0000000000000000000000000000000000000000000000000000000000000000000000000000000000000000bb1cf6f913de129900faefb7fbda2e247a7f22af000000000000000000000000764fa09d0b3de61eed242099bd9352c1c61d3d27",
          "blockHash": "0x47028657256c505d9015b0f602501c12e09560856962a431f69adc4611a8fdc5",
          "blockNumber": "0x388265c",
          "transactionHash": "0xd3c03d63d6c980f27436a630c2cf92f9be376f2b101d888e581ab5538ba6e045",
          "transactionIndex": "0x0",
          "logIndex": "0x0",
          "removed": false
        }
      ],
      "status": "0x1",
      "logsBloom": "0x00200000000000000000000000000000000000000000000000000000000000000000000000000000000000000000000000000000000000000000000000000000000000000000000000000000000000000000000000000000000000000000000002000000000800000000000000000000000000000000000000000000000000000000000000000008000000000000000000000002000000000000000000000000000000000000000000000000000000000000000000000000000000000000000000000000000000000000000000000000008000000000000000000000000000000000000000000000000000000000000000000000000000000000000000000000"
    }
  ],
  "libraries": [],
  "pending": [],
  "returns": {},
  "timestamp": 1709571395,
  "chain": 5000,
  "multi": false,
  "commit": "82af829"
}