{
  "transactions": [
    {
      "hash": "0x3c4494616543d0daf3ca65cf0e20192a03b430ef0ac1d3ee5ad98e93d29f49f4",
      "transactionType": "CALL",
      "contractName": null,
      "contractAddress": "0x1D5DE630BbBF68c9bf17D8462605227D79eA910C",
      "function": "updateAddress(address,address,address,address,address,bool,address,bool)",
      "arguments": [
        "0x5674Ce0Dbb2B5973aB768fB40938524da927A459",
        "0x0000000000000000000000000000000000000000",
        "0xBb1cF6f913DE129900faefb7FBDa2e247A7f22aF",
        "0x08dD79AEA6046B1E509fB84B57c3f9D024484D09",
        "0x7328908702DD919bC597a5291B4714b689d06b7A",
        "true",
        "0x0B15691C828fF6D499375e2ca2070B08Dd62369E",
        "true"
      ],
      "transaction": {
        "type": "0x00",
        "from": "0xee82496d3ed1f5afbeb9b29f3f59289fd899d9d0",
        "to": "0x1d5de630bbbf68c9bf17d8462605227d79ea910c",
        "gas": "0x1d583",
        "value": "0x0",
        "data": "0xc35ca6120000000000000000000000005674ce0dbb2b5973ab768fb40938524da927a4590000000000000000000000000000000000000000000000000000000000000000000000000000000000000000bb1cf6f913de129900faefb7fbda2e247a7f22af00000000000000000000000008dd79aea6046b1e509fb84b57c3f9d024484d090000000000000000000000007328908702dd919bc597a5291b4714b689d06b7a00000000000000000000000000000000000000000000000000000000000000010000000000000000000000000b15691c828ff6d499375e2ca2070b08dd62369e0000000000000000000000000000000000000000000000000000000000000001",
        "nonce": "0x13"
      },
      "additionalContracts": [],
      "isFixedGasLimit": false
    }
  ],
  "receipts": [
    {
      "transactionHash": "0x3c4494616543d0daf3ca65cf0e20192a03b430ef0ac1d3ee5ad98e93d29f49f4",
      "transactionIndex": "0x0",
      "blockHash": "0x9acae85df3cfe799ac58cce88a3f1f1b9f408536875e376b2617d6646b24c956",
      "blockNumber": "0x3882234",
      "from": "0xEE82496D3ed1f5AFbEB9B29f3f59289fd899d9D0",
      "to": "0x1D5DE630BbBF68c9bf17D8462605227D79eA910C",
      "cumulativeGasUsed": "0x153ec",
      "gasUsed": "0x153ec",
      "contractAddress": null,
      "logs": [
        {
          "address": "0x1D5DE630BbBF68c9bf17D8462605227D79eA910C",
          "topics": [
            "0x318be759e0d069183ded0831e6c2119c16ced81a05e6da31c19c8c53d01bb9e2"
          ],
          "data": "0x0000000000000000000000000000000000000000000000000000000000000000000000000000000000000000bb1cf6f913de129900faefb7fbda2e247a7f22af00000000000000000000000008dd79aea6046b1e509fb84b57c3f9d024484d09",
          "blockHash": "0x9acae85df3cfe799ac58cce88a3f1f1b9f408536875e376b2617d6646b24c956",
          "blockNumber": "0x3882234",
          "transactionHash": "0x3c4494616543d0daf3ca65cf0e20192a03b430ef0ac1d3ee5ad98e93d29f49f4",
          "transactionIndex": "0x0",
          "logIndex": "0x0",
          "removed": false
        }
      ],
      "status": "0x1",
      "logsBloom": "0x00200000000000000000000000000000000000000000000000000000000000000000000000000000000000000000000000000000000000000000000000000000000000000000000000000000000000000000000000000000000000001000000002000000000000000000000000000000000000000000000000000000000000000000000000000008000000000000000000000000000000000000000800000000000000000000000000000000000000000002000000000000000000000000000000000000000000000000000000000000000000000000000000000000000000000000000000000000000000000000000000000000000000000000000000000000"
    }
  ],
  "libraries": [],
  "pending": [],
  "returns": {},
  "timestamp": 1709570511,
  "chain": 5000,
  "multi": false,
  "commit": "82af829"
}