{
  "transactions": [
    {
      "hash": "0x2375e619ed19fc435a1e46dae2e9e5bdbe4ffc944d9cd77707f38c7dafa70767",
      "transactionType": "CALL",
      "contractName": null,
      "contractAddress": "0x1D5DE630BbBF68c9bf17D8462605227D79eA910C",
      "function": "updateAddress(address,address,address,address,address,bool,address,bool)",
      "arguments": [
        "0x5674Ce0Dbb2B5973aB768fB40938524da927A459",
        "0x0000000000000000000000000000000000000000",
        "0xBb1cF6f913DE129900faefb7FBDa2e247A7f22aF",
        "0x08dD79AEA6046B1E509fB84B57c3f9D024484D09",
        "0x1041fB8Ab01D6E979601d5eC753E8A717B3d459d",
        "true",
        "0xD08C50F7E69e9aeb2867DefF4A8053d9A855e26A",
        "true"
      ],
      "transaction": {
        "type": "0x00",
        "from": "0xee82496d3ed1f5afbeb9b29f3f59289fd899d9d0",
        "to": "0x1d5de630bbbf68c9bf17d8462605227d79ea910c",
        "gas": "0x240e2",
        "value": "0x0",
        "data": "0xc35ca6120000000000000000000000005674ce0dbb2b5973ab768fb40938524da927a4590000000000000000000000000000000000000000000000000000000000000000000000000000000000000000bb1cf6f913de129900faefb7fbda2e247a7f22af00000000000000000000000008dd79aea6046b1e509fb84b57c3f9d024484d090000000000000000000000001041fb8ab01d6e979601d5ec753e8a717b3d459d0000000000000000000000000000000000000000000000000000000000000001000000000000000000000000d08c50f7e69e9aeb2867deff4a8053d9a855e26a0000000000000000000000000000000000000000000000000000000000000001",
        "nonce": "0x11"
      },
      "additionalContracts": [],
      "isFixedGasLimit": false
    },
    {
      "hash": "0xe69b32674bfa49caef7b063d59838da8e5b146f5ddfcc384f561b82b96584fc0",
      "transactionType": "CALL",
      "contractName": null,
      "contractAddress": "0x1D5DE630BbBF68c9bf17D8462605227D79eA910C",
      "function": "updateAddress(address,address,address,address,address,bool,address,bool)",
      "arguments": [
        "0x5674Ce0Dbb2B5973aB768fB40938524da927A459",
        "0x0000000000000000000000000000000000000000",
        "0xBb1cF6f913DE129900faefb7FBDa2e247A7f22aF",
        "0x08dD79AEA6046B1E509fB84B57c3f9D024484D09",
        "0x3f4BC1FFADb1435F19909D31588F4ce12bC0e452",
        "true",
        "0x262255F4770aEbE2D0C8b97a46287dCeCc2a0AfF",
        "true"
      ],
      "transaction": {
        "type": "0x00",
        "from": "0xee82496d3ed1f5afbeb9b29f3f59289fd899d9d0",
        "to": "0x1d5de630bbbf68c9bf17d8462605227d79ea910c",
        "gas": "0x1d6e6",
        "value": "0x0",
        "data": "0xc35ca6120000000000000000000000005674ce0dbb2b5973ab768fb40938524da927a4590000000000000000000000000000000000000000000000000000000000000000000000000000000000000000bb1cf6f913de129900faefb7fbda2e247a7f22af00000000000000000000000008dd79aea6046b1e509fb84b57c3f9d024484d090000000000000000000000003f4bc1ffadb1435f19909d31588f4ce12bc0e4520000000000000000000000000000000000000000000000000000000000000001000000000000000000000000262255f4770aebe2d0c8b97a46287dcecc2a0aff0000000000000000000000000000000000000000000000000000000000000001",
        "nonce": "0x12"
      },
      "additionalContracts": [],
      "isFixedGasLimit": false
    },
    {
      "hash": null,
      "transactionType": "CALL",
      "contractName": null,
      "contractAddress": "0x1D5DE630BbBF68c9bf17D8462605227D79eA910C",
      "function": "updateAddress(address,address,address,address,address,bool,address,bool)",
      "arguments": [
        "0x5674Ce0Dbb2B5973aB768fB40938524da927A459",
        "0x0000000000000000000000000000000000000000",
        "0xBb1cF6f913DE129900faefb7FBDa2e247A7f22aF",
        "0x08dD79AEA6046B1E509fB84B57c3f9D024484D09",
        "0x7328908702DD919bC597a5291B4714b689d06b7A",
        "true",
        "0x0B15691C828fF6D499375e2ca2070B08Dd62369E",
        "true"
      ],
      "transaction": {
        "type": "0x00",
        "from": "0xee82496d3ed1f5afbeb9b29f3f59289fd899d9d0",
        "to": "0x1d5de630bbbf68c9bf17d8462605227d79ea910c",
        "gas": "0x1d583",
        "value": "0x0",
        "data": "0xc35ca6120000000000000000000000005674ce0dbb2b5973ab768fb40938524da927a4590000000000000000000000000000000000000000000000000000000000000000000000000000000000000000bb1cf6f913de129900faefb7fbda2e247a7f22af00000000000000000000000008dd79aea6046b1e509fb84b57c3f9d024484d090000000000000000000000007328908702dd919bc597a5291b4714b689d06b7a00000000000000000000000000000000000000000000000000000000000000010000000000000000000000000b15691c828ff6d499375e2ca2070b08dd62369e0000000000000000000000000000000000000000000000000000000000000001",
        "nonce": "0x13"
      },
      "additionalContracts": [],
      "isFixedGasLimit": false
    }
  ],
  "receipts": [],
  "libraries": [],
  "pending": [
    "0x2375e619ed19fc435a1e46dae2e9e5bdbe4ffc944d9cd77707f38c7dafa70767",
    "0xe69b32674bfa49caef7b063d59838da8e5b146f5ddfcc384f561b82b96584fc0"
  ],
  "returns": {},
  "timestamp": 1709570464,
  "chain": 5000,
  "multi": false,
  "commit": "82af829"
}