{
  "transactions": [
    {
      "hash": "0x98866e5840bbec90caab29729f1563089a93c4cc4dcba7b0ad0150235eee6a23",
      "transactionType": "CALL",
      "contractName": "OptionPricingLinearV2_1",
      "contractAddress": "0x0a11e980cab9da65846840a8cfa4340ce80b00bc",
      "function": "updateVolatilityMultiplier(uint256[],uint256[])",
      "arguments": [
        "[400, 400, 400, 400, 400, 1000]",
        "[3600, 7200, 21600, 43200, 86400, 604800]"
      ],
      "transaction": {
        "from": "0x615443c734716338039dff118e88dd050d1d9960",
        "to": "0x0a11e980cab9da65846840a8cfa4340ce80b00bc",
        "gas": "0x12ce1",
        "value": "0x0",
        "input": "0x7b0bfdbb0000000000000000000000000000000000000000000000000000000000000040000000000000000000000000000000000000000000000000000000000000012000000000000000000000000000000000000000000000000000000000000000060000000000000000000000000000000000000000000000000000000000000190000000000000000000000000000000000000000000000000000000000000019000000000000000000000000000000000000000000000000000000000000001900000000000000000000000000000000000000000000000000000000000000190000000000000000000000000000000000000000000000000000000000000019000000000000000000000000000000000000000000000000000000000000003e800000000000000000000000000000000000000000000000000000000000000060000000000000000000000000000000000000000000000000000000000000e100000000000000000000000000000000000000000000000000000000000001c200000000000000000000000000000000000000000000000000000000000005460000000000000000000000000000000000000000000000000000000000000a8c000000000000000000000000000000000000000000000000000000000000151800000000000000000000000000000000000000000000000000000000000093a80",
        "nonce": "0x40",
        "chainId": "0x92"
      },
      "additionalContracts": [],
      "isFixedGasLimit": false
    }
  ],
  "receipts": [
    {
      "status": "0x1",
      "cumulativeGasUsed": "0x1f819",
      "logs": [],
      "logsBloom": "0x00000000000000000000000000000000000000000000000000000000000000000000000000000000000000000000000000000000000000000000000000000000000000000000000000000000000000000000000000000000000000000000000000000000000000000000000000000000000000000000000000000000000000000000000000000000000000000000000000000000000000000000000000000000000000000000000000000000000000000000000000000000000000000000000000000000000000000000000000000000000000000000000000000000000000000000000000000000000000000000000000000000000000000000000000000000",
      "type": "0x2",
      "transactionHash": "0x98866e5840bbec90caab29729f1563089a93c4cc4dcba7b0ad0150235eee6a23",
      "transactionIndex": "0x2",
      "blockHash": "0x70c95299e38c519674ec6e787c0fe2d7b573f111a991514ed4c93c272e0f4ebf",
      "blockNumber": "0x1f08d5",
      "gasUsed": "0xe223",
      "effectiveGasPrice": "0x3b9aca01",
      "from": "0x615443c734716338039dff118e88dd050d1d9960",
      "to": "0x0a11e980cab9da65846840a8cfa4340ce80b00bc",
      "contractAddress": null
    }
  ],
  "libraries": [],
  "pending": [],
  "returns": {},
  "timestamp": 1735595957,
  "chain": 146,
  "commit": "f047cfb"
}