{
  "transactions": [
    {
      "hash": "0xb595e07e3a89f3b68aa490e076ce4dd976ae7d982b0e0e625b6448288dd854db",
      "transactionType": "CALL",
      "contractName": "OptionPricingLinearV2_1",
      "contractAddress": "0x8e341a98467fa00e27f42fc0d34e3c3b33a4eef3",
      "function": "updateIVs(uint256[],uint256[])",
      "arguments": [
        "[3600, 7200, 21600, 43200, 86400, 604800]",
        "[70, 70, 70, 70, 70, 100]"
      ],
      "transaction": {
        "from": "0x615443c734716338039dff118e88dd050d1d9960",
        "to": "0x8e341a98467fa00e27f42fc0d34e3c3b33a4eef3",
        "gas": "0x16cae",
        "value": "0x0",
        "input": "0x016d47b50000000000000000000000000000000000000000000000000000000000000040000000000000000000000000000000000000000000000000000000000000012000000000000000000000000000000000000000000000000000000000000000060000000000000000000000000000000000000000000000000000000000000e100000000000000000000000000000000000000000000000000000000000001c200000000000000000000000000000000000000000000000000000000000005460000000000000000000000000000000000000000000000000000000000000a8c000000000000000000000000000000000000000000000000000000000000151800000000000000000000000000000000000000000000000000000000000093a800000000000000000000000000000000000000000000000000000000000000006000000000000000000000000000000000000000000000000000000000000004600000000000000000000000000000000000000000000000000000000000000460000000000000000000000000000000000000000000000000000000000000046000000000000000000000000000000000000000000000000000000000000004600000000000000000000000000000000000000000000000000000000000000460000000000000000000000000000000000000000000000000000000000000064",
        "nonce": "0x3f",
        "chainId": "0x92"
      },
      "additionalContracts": [],
      "isFixedGasLimit": false
    }
  ],
  "receipts": [
    {
      "status": "0x1",
      "cumulativeGasUsed": "0x104e3",
      "logs": [
        {
          "address": "0x8e341a98467fa00e27f42fc0d34e3c3b33a4eef3",
          "topics": [
            "0x95805653338d965e92ffa53d6faff39c28f90a2e8a5166c48e94ca9a919f4245"
          ],
          "data": "0x000000000000000000000000615443c734716338039dff118e88dd050d1d99600000000000000000000000000000000000000000000000000000000000000060000000000000000000000000000000000000000000000000000000000000014000000000000000000000000000000000000000000000000000000000000000060000000000000000000000000000000000000000000000000000000000000e100000000000000000000000000000000000000000000000000000000000001c200000000000000000000000000000000000000000000000000000000000005460000000000000000000000000000000000000000000000000000000000000a8c000000000000000000000000000000000000000000000000000000000000151800000000000000000000000000000000000000000000000000000000000093a800000000000000000000000000000000000000000000000000000000000000006000000000000000000000000000000000000000000000000000000000000004600000000000000000000000000000000000000000000000000000000000000460000000000000000000000000000000000000000000000000000000000000046000000000000000000000000000000000000000000000000000000000000004600000000000000000000000000000000000000000000000000000000000000460000000000000000000000000000000000000000000000000000000000000064",
          "blockHash": "0x2d44b38282c6f55e5d1b026e7d25a91e3c9748a95ab76d3a7685947fe9b1b1ea",
          "blockNumber": "0x1f0873",
          "transactionHash": "0xb595e07e3a89f3b68aa490e076ce4dd976ae7d982b0e0e625b6448288dd854db",
          "transactionIndex": "0x0",
          "logIndex": "0x0",
          "removed": false
        }
      ],
      "logsBloom": "0x00000000000000000000000000000000000000000000000000000000000000000000000000000000000000000000000000000000000000000000000000000000000000000000000000000000080000000000000000000000000000000000000000000000000000000000000000000000000000000000000000000000000000000000000000000000000000000000000000000000000000000000000000000000000000000000000000000000000004000000000000000000000000000000000000000000000000000000000000000010000000000000000000000000000000000000200000020000000000000000000000000000000000000000000010000000",
      "type": "0x2",
      "transactionHash": "0xb595e07e3a89f3b68aa490e076ce4dd976ae7d982b0e0e625b6448288dd854db",
      "transactionIndex": "0x0",
      "blockHash": "0x2d44b38282c6f55e5d1b026e7d25a91e3c9748a95ab76d3a7685947fe9b1b1ea",
      "blockNumber": "0x1f0873",
      "gasUsed": "0x104e3",
      "effectiveGasPrice": "0x3b9aca01",
      "from": "0x615443c734716338039dff118e88dd050d1d9960",
      "to": "0x8e341a98467fa00e27f42fc0d34e3c3b33a4eef3",
      "contractAddress": null
    }
  ],
  "libraries": [],
  "pending": [],
  "returns": {},
  "timestamp": 1735595881,
  "chain": 146,
  "commit": "f047cfb"
}