{
  "transactions": [
    {
      "hash": "0x07b934c57db09df53f553e2ab607095d672ad6dcf00cfde12cf3990b9b55ef53",
      "transactionType": "CALL",
      "contractName": null,
      "contractAddress": "0xD648267FC75e144f28436E7b54030C7466031b05",
      "function": "updateWhitelistedApps(address,bool)",
      "arguments": [
        "0xE4bA6740aF4c666325D49B3112E4758371386aDc",
        "true"
      ],
      "transaction": {
        "type": "0x00",
        "from": "0xee82496d3ed1f5afbeb9b29f3f59289fd899d9d0",
        "to": "0xd648267fc75e144f28436e7b54030c7466031b05",
        "gas": "0x1167a",
        "value": "0x0",
        "data": "0xec944b6d000000000000000000000000e4ba6740af4c666325d49b3112e4758371386adc0000000000000000000000000000000000000000000000000000000000000001",
        "nonce": "0xa"
      },
      "additionalContracts": [],
      "isFixedGasLimit": false
    },
    {
      "hash": "0x684059a796a44088a424bb5b1fc6a9306725edf9af3ea7c9da43f31ec5c9c67b",
      "transactionType": "CALL",
      "contractName": null,
      "contractAddress": "0xE4bA6740aF4c666325D49B3112E4758371386aDc",
      "function": "updateWhitelistHandler(address,bool)",
      "arguments": [
        "0xD648267FC75e144f28436E7b54030C7466031b05",
        "true"
      ],
      "transaction": {
        "type": "0x00",
        "from": "0xee82496d3ed1f5afbeb9b29f3f59289fd899d9d0",
        "to": "0xe4ba6740af4c666325d49b3112e4758371386adc",
        "gas": "0x1016b",
        "value": "0x0",
        "data": "0x05d293e9000000000000000000000000d648267fc75e144f28436e7b54030c7466031b050000000000000000000000000000000000000000000000000000000000000001",
        "nonce": "0xb"
      },
      "additionalContracts": [],
      "isFixedGasLimit": false
    }
  ],
  "receipts": [
    {
      "transactionHash": "0x07b934c57db09df53f553e2ab607095d672ad6dcf00cfde12cf3990b9b55ef53",
      "transactionIndex": "0x0",
      "blockHash": "0xc3f4cb14b0aa8ff877a79247c236ddb01c525dfaa05efe0db3bef4d0d683c140",
      "blockNumber": "0x3881501",
      "from": "0xEE82496D3ed1f5AFbEB9B29f3f59289fd899d9D0",
      "to": "0xD648267FC75e144f28436E7b54030C7466031b05",
      "cumulativeGasUsed": "0xbe6a",
      "gasUsed": "0xbe6a",
      "contractAddress": null,
      "logs": [
        {
          "address": "0xD648267FC75e144f28436E7b54030C7466031b05",
          "topics": [
            "0x6bf75a1f3a54afacac4f907472d898c39eb17762894b2a10c33bca0d1b7f2eba"
          ],
          "data": "0x000000000000000000000000e4ba6740af4c666325d49b3112e4758371386adc0000000000000000000000000000000000000000000000000000000000000001",
          "blockHash": "0xc3f4cb14b0aa8ff877a79247c236ddb01c525dfaa05efe0db3bef4d0d683c140",
          "blockNumber": "0x3881501",
          "transactionHash": "0x07b934c57db09df53f553e2ab607095d672ad6dcf00cfde12cf3990b9b55ef53",
          "transactionIndex": "0x0",
          "logIndex": "0x0",
          "removed": false
        }
      ],
      "status": "0x1",
      "logsBloom": "0x00000000000000000000000000000000000000000000000000000000000000000000000000000000000000000004000000000000000000000000000000000000000000000000000000000000000000000000000000000000000000000000000000000000000000000000000000000000000000000000000000000000000000000000000000000000000000000100000000020000000000000000000000000000000000000000000000000000000000000010000000000000000000000000000000000000000000000000000000000000000000000000000000000400000000000100000000000000000000000000000000000000000000000000000000000000"
    },
    {
      "transactionHash": "0x684059a796a44088a424bb5b1fc6a9306725edf9af3ea7c9da43f31ec5c9c67b",
      "transactionIndex": "0x0",
      "blockHash": "0x3f3021c979e9c7770b1254046896dddb9e9ca2f3b524b10ea8deb70a4e7010af",
      "blockNumber": "0x3881502",
      "from": "0xEE82496D3ed1f5AFbEB9B29f3f59289fd899d9D0",
      "to": "0xE4bA6740aF4c666325D49B3112E4758371386aDc",
      "cumulativeGasUsed": "0xba5f",
      "gasUsed": "0xba5f",
      "contractAddress": null,
      "logs": [
        {
          "address": "0xE4bA6740aF4c666325D49B3112E4758371386aDc",
          "topics": [
            "0x48fd1bb994f7f5d40a6f2e8e4b9d8060239dc6e26f0ad2be628f9ac597e07b71"
          ],
          "data": "0x000000000000000000000000d648267fc75e144f28436e7b54030c7466031b050000000000000000000000000000000000000000000000000000000000000001",
          "blockHash": "0x3f3021c979e9c7770b1254046896dddb9e9ca2f3b524b10ea8deb70a4e7010af",
          "blockNumber": "0x3881502",
          "transactionHash": "0x684059a796a44088a424bb5b1fc6a9306725edf9af3ea7c9da43f31ec5c9c67b",
          "transactionIndex": "0x0",
          "logIndex": "0x0",
          "removed": false
        }
      ],
      "status": "0x1",
      "logsBloom": "0x00000000000000000000000000000000000000000040000000000000000000000000000000000000000000000000000000000000000080000000000000000000000000000000000000000000000000000000000000000000000000000000000000000000000000000000000000000000000002000000000000000000000000000000000000000000000000000000000000000000004000000000000000000000000000000000000000000000000000000000000000000000000000000000000000000000000000000002000000000000000000000000000000000000000000000000000000000000001000000000000000000000000000000000000000000000"
    }
  ],
  "libraries": [],
  "pending": [],
  "returns": {},
  "timestamp": 1709569042,
  "chain": 5000,
  "multi": false,
  "commit": "82af829"
}