{
  "transactions": [
    {
      "hash": "0xda9b649195c4b9caa1ce760cdb2f7ee999a4101e3d7548bc909c8b9da6d697ac",
      "transactionType": "CALL",
      "contractName": null,
      "contractAddress": "0x60E86Cae8AdBd8157b2135689f67b957371E7513",
      "function": "updateIVs(uint256[],uint256[])",
      "arguments": [
        "[0, 3600, 7200, 21600, 43200, 86400]",
        "[0, 58, 54, 48, 44, 40]"
      ],
      "transaction": {
        "type": "0x00",
        "from": "0xee82496d3ed1f5afbeb9b29f3f59289fd899d9d0",
        "to": "0x60e86cae8adbd8157b2135689f67b957371e7513",
        "gas": "0x313f28",
        "value": "0x0",
        "data": "0x016d47b500000000000000000000000000000000000000000000000000000000000000400000000000000000000000000000000000000000000000000000000000000120000000000000000000000000000000000000000000000000000000000000000600000000000000000000000000000000000000000000000000000000000000000000000000000000000000000000000000000000000000000000000000000e100000000000000000000000000000000000000000000000000000000000001c200000000000000000000000000000000000000000000000000000000000005460000000000000000000000000000000000000000000000000000000000000a8c0000000000000000000000000000000000000000000000000000000000001518000000000000000000000000000000000000000000000000000000000000000060000000000000000000000000000000000000000000000000000000000000000000000000000000000000000000000000000000000000000000000000000003a00000000000000000000000000000000000000000000000000000000000000360000000000000000000000000000000000000000000000000000000000000030000000000000000000000000000000000000000000000000000000000000002c0000000000000000000000000000000000000000000000000000000000000028",
        "nonce": "0x88"
      },
      "additionalContracts": [],
      "isFixedGasLimit": false
    },
    {
      "hash": "0x70bace159026c4bead1945f11215872d4486fec71cf011f8b0539479e629153c",
      "transactionType": "CALL",
      "contractName": null,
      "contractAddress": "0x8B55C45EC7e6b1AFCDBf909FEe0A6Da12CFae70c",
      "function": "updateIVs(uint256[],uint256[])",
      "arguments": [
        "[0, 3600, 7200, 21600, 43200, 86400]",
        "[0, 58, 54, 48, 4, 40]"
      ],
      "transaction": {
        "type": "0x00",
        "from": "0xee82496d3ed1f5afbeb9b29f3f59289fd899d9d0",
        "to": "0x8b55c45ec7e6b1afcdbf909fee0a6da12cfae70c",
        "gas": "0x3160ae",
        "value": "0x0",
        "data": "0x016d47b500000000000000000000000000000000000000000000000000000000000000400000000000000000000000000000000000000000000000000000000000000120000000000000000000000000000000000000000000000000000000000000000600000000000000000000000000000000000000000000000000000000000000000000000000000000000000000000000000000000000000000000000000000e100000000000000000000000000000000000000000000000000000000000001c200000000000000000000000000000000000000000000000000000000000005460000000000000000000000000000000000000000000000000000000000000a8c0000000000000000000000000000000000000000000000000000000000001518000000000000000000000000000000000000000000000000000000000000000060000000000000000000000000000000000000000000000000000000000000000000000000000000000000000000000000000000000000000000000000000003a0000000000000000000000000000000000000000000000000000000000000036000000000000000000000000000000000000000000000000000000000000003000000000000000000000000000000000000000000000000000000000000000040000000000000000000000000000000000000000000000000000000000000028",
        "nonce": "0x89"
      },
      "additionalContracts": [],
      "isFixedGasLimit": false
    },
    {
      "hash": "0x64e0d5b8a223b057ce8d2e2075cf9767852e66ef0afcff1a50b63064fc19f238",
      "transactionType": "CALL",
      "contractName": null,
      "contractAddress": "0xfCf7514B9ba64567623eA219b7c099Bee95B8b04",
      "function": "updateIVs(uint256[],uint256[])",
      "arguments": [
        "[0, 3600, 7200, 21600, 43200, 86400]",
        "[0, 68, 62, 56, 50, 44]"
      ],
      "transaction": {
        "type": "0x00",
        "from": "0xee82496d3ed1f5afbeb9b29f3f59289fd899d9d0",
        "to": "0xfcf7514b9ba64567623ea219b7c099bee95b8b04",
        "gas": "0x30b2e8",
        "value": "0x0",
        "data": "0x016d47b500000000000000000000000000000000000000000000000000000000000000400000000000000000000000000000000000000000000000000000000000000120000000000000000000000000000000000000000000000000000000000000000600000000000000000000000000000000000000000000000000000000000000000000000000000000000000000000000000000000000000000000000000000e100000000000000000000000000000000000000000000000000000000000001c200000000000000000000000000000000000000000000000000000000000005460000000000000000000000000000000000000000000000000000000000000a8c00000000000000000000000000000000000000000000000000000000000015180000000000000000000000000000000000000000000000000000000000000000600000000000000000000000000000000000000000000000000000000000000000000000000000000000000000000000000000000000000000000000000000044000000000000000000000000000000000000000000000000000000000000003e00000000000000000000000000000000000000000000000000000000000000380000000000000000000000000000000000000000000000000000000000000032000000000000000000000000000000000000000000000000000000000000002c",
        "nonce": "0x8a"
      },
      "additionalContracts": [],
      "isFixedGasLimit": false
    }
  ],
  "receipts": [
    {
      "transactionHash": "0xda9b649195c4b9caa1ce760cdb2f7ee999a4101e3d7548bc909c8b9da6d697ac",
      "transactionIndex": "0x9",
      "blockHash": "0xc8216abe59f97cf12194fc2451255d9d78d0bc2cc53c52c6551d2fff4292df2c",
      "blockNumber": "0xb038ecb",
      "from": "0xEE82496D3ed1f5AFbEB9B29f3f59289fd899d9D0",
      "to": "0x60E86Cae8AdBd8157b2135689f67b957371E7513",
      "cumulativeGasUsed": "0xbb45a3",
      "gasUsed": "0x1f2914",
      "contractAddress": null,
      "logs": [],
      "status": "0x1",
      "logsBloom": "0x00000000000000000000000000000000000000000000000000000000000000000000000000000000000000000000000000000000000000000000000000000000000000000000000000000000000000000000000000000000000000000000000000000000000000000000000000000000000000000000000000000000000000000000000000000000000000000000000000000000000000000000000000000000000000000000000000000000000000000000000000000000000000000000000000000000000000000000000000000000000000000000000000000000000000000000000000000000000000000000000000000000000000000000000000000000",
      "type": "0x0",
      "effectiveGasPrice": "0x5f5e100"
    },
    {
      "transactionHash": "0x70bace159026c4bead1945f11215872d4486fec71cf011f8b0539479e629153c",
      "transactionIndex": "0x2",
      "blockHash": "0xc8b150e74e20ab4853aade57ac6a8d1c27602a1dc1b5f5da325489d606e51625",
      "blockNumber": "0xb038ed0",
      "from": "0xEE82496D3ed1f5AFbEB9B29f3f59289fd899d9D0",
      "to": "0x8B55C45EC7e6b1AFCDBf909FEe0A6Da12CFae70c",
      "cumulativeGasUsed": "0x6d6717",
      "gasUsed": "0x1ecb4a",
      "contractAddress": null,
      "logs": [],
      "status": "0x1",
      "logsBloom": "0x00000000000000000000000000000000000000000000000000000000000000000000000000000000000000000000000000000000000000000000000000000000000000000000000000000000000000000000000000000000000000000000000000000000000000000000000000000000000000000000000000000000000000000000000000000000000000000000000000000000000000000000000000000000000000000000000000000000000000000000000000000000000000000000000000000000000000000000000000000000000000000000000000000000000000000000000000000000000000000000000000000000000000000000000000000000",
      "type": "0x0",
      "effectiveGasPrice": "0x5f5e100"
    },
    {
      "transactionHash": "0x64e0d5b8a223b057ce8d2e2075cf9767852e66ef0afcff1a50b63064fc19f238",
      "transactionIndex": "0x1",
      "blockHash": "0x3603db09025f1c7959fd349b8e838a8a692dcf7ff80f43690b3ace93e809aa0b",
      "blockNumber": "0xb038ed6",
      "from": "0xEE82496D3ed1f5AFbEB9B29f3f59289fd899d9D0",
      "to": "0xfCf7514B9ba64567623eA219b7c099Bee95B8b04",
      "cumulativeGasUsed": "0x1e949a",
      "gasUsed": "0x1e949a",
      "contractAddress": null,
      "logs": [],
      "status": "0x1",
      "logsBloom": "0x00000000000000000000000000000000000000000000000000000000000000000000000000000000000000000000000000000000000000000000000000000000000000000000000000000000000000000000000000000000000000000000000000000000000000000000000000000000000000000000000000000000000000000000000000000000000000000000000000000000000000000000000000000000000000000000000000000000000000000000000000000000000000000000000000000000000000000000000000000000000000000000000000000000000000000000000000000000000000000000000000000000000000000000000000000000",
      "type": "0x0",
      "effectiveGasPrice": "0x5f5e100"
    }
  ],
  "libraries": [],
  "pending": [],
  "returns": {},
  "timestamp": 1708981339,
  "chain": 42161,
  "multi": false,
  "commit": "5a20d7b"
}