{
  "transactions": [
    {
      "hash": "0x1620a3de871360127e32b89af48e17602ecfaf334321a015809f45d208909b48",
      "transactionType": "CALL",
      "contractName": null,
      "contractAddress": "0x9fd06bb305d74c85961ce2307dab72b07d06606f",
      "function": "updateAddress(address,address,address,address,address,bool,address,bool)",
      "arguments": [
        "0x0000000000000000000000000000000000000000",
        "0x0000000000000000000000000000000000000000",
        "0x0189D0E3965FCa86bCA5659eBDbFe8dCc9aa36B0",
        "0xF24C12926c8BF7d4d0C6443583766c6D0EBcd74F",
        "0x3f4BC1FFADb1435F19909D31588F4ce12bC0e452",
        "true",
        "0xb2cc224c1c9feE385f8ad6a55b4d94E92359DC59",
        "true"
      ],
      "transaction": {
        "from": "0x615443c734716338039dff118e88dd050d1d9960",
        "to": "0x9fd06bb305d74c85961ce2307dab72b07d06606f",
        "gas": "0x219b3",
        "value": "0x0",
        "input": "0xc35ca612000000000000000000000000000000000000000000000000000000000000000000000000000000000000000000000000000000000000000000000000000000000000000000000000000000000189d0e3965fca86bca5659ebdbfe8dcc9aa36b0000000000000000000000000f24c12926c8bf7d4d0c6443583766c6d0ebcd74f0000000000000000000000003f4bc1ffadb1435f19909d31588f4ce12bc0e4520000000000000000000000000000000000000000000000000000000000000001000000000000000000000000b2cc224c1c9fee385f8ad6a55b4d94e92359dc590000000000000000000000000000000000000000000000000000000000000001",
        "nonce": "0xd",
        "chainId": "0x2105"
      },
      "additionalContracts": [],
      "isFixedGasLimit": false
    },
    {
      "hash": "0xccb81c21b5673996542d86e4d21b2b7ff137bfdd07f2f05497d2a8689930f8ea",
      "transactionType": "CALL",
      "contractName": null,
      "contractAddress": "0x499218af9349bf35e70bf72d157cc8ebd291a7c3",
      "function": "updateAddress(address,address,address,address,address,bool,address,bool)",
      "arguments": [
        "0x0000000000000000000000000000000000000000",
        "0x0000000000000000000000000000000000000000",
        "0x0189D0E3965FCa86bCA5659eBDbFe8dCc9aa36B0",
        "0xb97aa593Dde7d2657E55a17336962D2d34f05265",
        "0x3f4BC1FFADb1435F19909D31588F4ce12bC0e452",
        "true",
        "0x4e962BB3889Bf030368F56810A9c96B83CB3E778",
        "true"
      ],
      "transaction": {
        "from": "0x615443c734716338039dff118e88dd050d1d9960",
        "to": "0x499218af9349bf35e70bf72d157cc8ebd291a7c3",
        "gas": "0x219b3",
        "value": "0x0",
        "input": "0xc35ca612000000000000000000000000000000000000000000000000000000000000000000000000000000000000000000000000000000000000000000000000000000000000000000000000000000000189d0e3965fca86bca5659ebdbfe8dcc9aa36b0000000000000000000000000b97aa593dde7d2657e55a17336962d2d34f052650000000000000000000000003f4bc1ffadb1435f19909d31588f4ce12bc0e45200000000000000000000000000000000000000000000000000000000000000010000000000000000000000004e962bb3889bf030368f56810a9c96b83cb3e7780000000000000000000000000000000000000000000000000000000000000001",
        "nonce": "0xe",
        "chainId": "0x2105"
      },
      "additionalContracts": [],
      "isFixedGasLimit": false
    }
  ],
  "receipts": [
    {
      "status": "0x1",
      "cumulativeGasUsed": "0x193419a",
      "logs": [
        {
          "address": "0x9fd06bb305d74c85961ce2307dab72b07d06606f",
          "topics": [
            "0x318be759e0d069183ded0831e6c2119c16ced81a05e6da31c19c8c53d01bb9e2"
          ],
          "data": "0x00000000000000000000000000000000000000000000000000000000000000000000000000000000000000000189d0e3965fca86bca5659ebdbfe8dcc9aa36b0000000000000000000000000f24c12926c8bf7d4d0c6443583766c6d0ebcd74f",
          "blockHash": "0x3fc3a9a75b984f69005f2fe63175e20de423844fdc831013ce17669b7adcb294",
          "blockNumber": "0x169a1fb",
          "blockTimestamp": "0x675da0d9",
          "transactionHash": "0x1620a3de871360127e32b89af48e17602ecfaf334321a015809f45d208909b48",
          "transactionIndex": "0x6a",
          "logIndex": "0x139",
          "removed": false
        }
      ],
      "logsBloom": "0x00200000000000000000000000000000000000000000000000000000000000000000000000000000000000000000000000000000000000000000000000000000000000000000000000000000000000000000000000000000000000000000000002000000000000000000000000000000000000000000000000002000000000000000000000000008000000000000000000000000000000000100000000000000000000000000000000000000000000000000000000000000000000000000000000000000000000000000000100000000000000000000000000000000000000000000000000000000000000000000000000000000000000000000000000000000",
      "type": "0x2",
      "transactionHash": "0x1620a3de871360127e32b89af48e17602ecfaf334321a015809f45d208909b48",
      "transactionIndex": "0x6a",
      "blockHash": "0x3fc3a9a75b984f69005f2fe63175e20de423844fdc831013ce17669b7adcb294",
      "blockNumber": "0x169a1fb",
      "gasUsed": "0x16fa9",
      "effectiveGasPrice": "0x75a3ea",
      "from": "0x615443c734716338039dff118e88dd050d1d9960",
      "to": "0x9fd06bb305d74c85961ce2307dab72b07d06606f",
      "contractAddress": null,
      "l1BaseFeeScalar": "0x8dd",
      "l1BlobBaseFee": "0x56b5ee0c5",
      "l1BlobBaseFeeScalar": "0x101c12",
      "l1Fee": "0x113de8fc4f",
      "l1FeeScalar": "0.002269",
      "l1GasPrice": "0x1f55e6676",
      "l1GasUsed": "0xf28"
    },
    {
      "status": "0x1",
      "cumulativeGasUsed": "0x1997e5b",
      "logs": [
        {
          "address": "0x499218af9349bf35e70bf72d157cc8ebd291a7c3",
          "topics": [
            "0x318be759e0d069183ded0831e6c2119c16ced81a05e6da31c19c8c53d01bb9e2"
          ],
          "data": "0x00000000000000000000000000000000000000000000000000000000000000000000000000000000000000000189d0e3965fca86bca5659ebdbfe8dcc9aa36b0000000000000000000000000b97aa593dde7d2657e55a17336962d2d34f05265",
          "blockHash": "0x3fc3a9a75b984f69005f2fe63175e20de423844fdc831013ce17669b7adcb294",
          "blockNumber": "0x169a1fb",
          "transactionHash": "0xccb81c21b5673996542d86e4d21b2b7ff137bfdd07f2f05497d2a8689930f8ea",
          "transactionIndex": "0x6f",
          "logIndex": "0x145",
          "removed": false
        }
      ],
      "logsBloom": "0x00200000000000000000000000000000000000000000000000000000000000000000000000000000000000000000000000000000000000000000000000000000000000000000000000000000000000000000000000000000000000000000000002000000000000000000000000000000000000000000000000000000000000100000000000000008000000000000000000000000000000000000000000000000000000000000000000000000000000000000000000000000000000000000000000000000000000000000000000000000000000000000000000000000000000000000000000000000000000000000000000000001000000000000000000000080",
      "type": "0x2",
      "transactionHash": "0xccb81c21b5673996542d86e4d21b2b7ff137bfdd07f2f05497d2a8689930f8ea",
      "transactionIndex": "0x6f",
      "blockHash": "0x3fc3a9a75b984f69005f2fe63175e20de423844fdc831013ce17669b7adcb294",
      "blockNumber": "0x169a1fb",
      "gasUsed": "0x16fa9",
      "effectiveGasPrice": "0x75a3ea",
      "from": "0x615443c734716338039dff118e88dd050d1d9960",
      "to": "0x499218af9349bf35e70bf72d157cc8ebd291a7c3",
      "contractAddress": null,
      "l1BaseFeeScalar": "0x8dd",
      "l1BlobBaseFee": "0x56b5ee0c5",
      "l1BlobBaseFeeScalar": "0x101c12",
      "l1Fee": "0x3772f7ba53a",
      "l1GasPrice": "0x1f55e6676",
      "l1GasUsed": "0x992"
    }
  ],
  "libraries": [],
  "pending": [],
  "returns": {},
  "timestamp": 1734189274,
  "chain": 8453,
  "commit": "be71424"
}