{
  "transactions": [
    {
      "hash": "0x959f9ab042070569fc9849e2bd1b0a00a911634a644514a1a5e2e9cb6261b84c",
      "transactionType": "CALL",
      "contractName": null,
      "contractAddress": "0x499218af9349bf35e70bf72d157cc8ebd291a7c3",
      "function": "updateAddress(address,address,address,address,address,bool,address,bool)",
      "arguments": [
        "0x9BfDdC9C32A34d856DdC694Bb0CB27D9a9e4D41B",
        "0x0000000000000000000000000000000000000000",
        "0x0189D0E3965FCa86bCA5659eBDbFe8dCc9aa36B0",
        "0xb97aa593Dde7d2657E55a17336962D2d34f05265",
        "0x3f4BC1FFADb1435F19909D31588F4ce12bC0e452",
        "true",
        "0x4e962BB3889Bf030368F56810A9c96B83CB3E778",
        "true"
      ],
      "transaction": {
        "from": "0x615443c734716338039dff118e88dd050d1d9960",
        "to": "0x499218af9349bf35e70bf72d157cc8ebd291a7c3",
        "gas": "0x191c0",
        "value": "0x0",
        "input": "0xc35ca6120000000000000000000000009bfddc9c32a34d856ddc694bb0cb27d9a9e4d41b00000000000000000000000000000000000000000000000000000000000000000000000000000000000000000189d0e3965fca86bca5659ebdbfe8dcc9aa36b0000000000000000000000000b97aa593dde7d2657e55a17336962d2d34f052650000000000000000000000003f4bc1ffadb1435f19909d31588f4ce12bc0e45200000000000000000000000000000000000000000000000000000000000000010000000000000000000000004e962bb3889bf030368f56810a9c96b83cb3e7780000000000000000000000000000000000000000000000000000000000000001",
        "nonce": "0x14",
        "chainId": "0x2105"
      },
      "additionalContracts": [],
      "isFixedGasLimit": false
    },
    {
      "hash": "0xed25427c550065f1f84596d6e9c583ccc12e2d03c447191bcfcbfeae1914393e",
      "transactionType": "CALL",
      "contractName": null,
      "contractAddress": "0x9fd06bb305d74c85961ce2307dab72b07d06606f",
      "function": "updateAddress(address,address,address,address,address,bool,address,bool)",
      "arguments": [
        "0x9BfDdC9C32A34d856DdC694Bb0CB27D9a9e4D41B",
        "0x0000000000000000000000000000000000000000",
        "0x0189D0E3965FCa86bCA5659eBDbFe8dCc9aa36B0",
        "0xF24C12926c8BF7d4d0C6443583766c6D0EBcd74F",
        "0x3f4BC1FFADb1435F19909D31588F4ce12bC0e452",
        "true",
        "0xb2cc224c1c9feE385f8ad6a55b4d94E92359DC59",
        "true"
      ],
      "transaction": {
        "from": "0x615443c734716338039dff118e88dd050d1d9960",
        "to": "0x9fd06bb305d74c85961ce2307dab72b07d06606f",
        "gas": "0x191c0",
        "value": "0x0",
        "input": "0xc35ca6120000000000000000000000009bfddc9c32a34d856ddc694bb0cb27d9a9e4d41b00000000000000000000000000000000000000000000000000000000000000000000000000000000000000000189d0e3965fca86bca5659ebdbfe8dcc9aa36b0000000000000000000000000f24c12926c8bf7d4d0c6443583766c6d0ebcd74f0000000000000000000000003f4bc1ffadb1435f19909d31588f4ce12bc0e4520000000000000000000000000000000000000000000000000000000000000001000000000000000000000000b2cc224c1c9fee385f8ad6a55b4d94e92359dc590000000000000000000000000000000000000000000000000000000000000001",
        "nonce": "0x15",
        "chainId": "0x2105"
      },
      "additionalContracts": [],
      "isFixedGasLimit": false
    }
  ],
  "receipts": [
    {
      "status": "0x1",
      "cumulativeGasUsed": "0x193d16f",
      "logs": [
        {
          "address": "0x499218af9349bf35e70bf72d157cc8ebd291a7c3",
          "topics": [
            "0x318be759e0d069183ded0831e6c2119c16ced81a05e6da31c19c8c53d01bb9e2"
          ],
          "data": "0x00000000000000000000000000000000000000000000000000000000000000000000000000000000000000000189d0e3965fca86bca5659ebdbfe8dcc9aa36b0000000000000000000000000b97aa593dde7d2657e55a17336962d2d34f05265",
          "blockHash": "0x4a6787e31946359671443eb78f069de3cefd2aa0d12394bb8c4ae75068746e63",
          "blockNumber": "0x17443a9",
          "blockTimestamp": "0x6772e435",
          "transactionHash": "0x959f9ab042070569fc9849e2bd1b0a00a911634a644514a1a5e2e9cb6261b84c",
          "transactionIndex": "0x5d",
          "logIndex": "0x197",
          "removed": false
        }
      ],
      "logsBloom": "0x00200000000000000000000000000000000000000000000000000000000000000000000000000000000000000000000000000000000000000000000000000000000000000000000000000000000000000000000000000000000000000000000002000000000000000000000000000000000000000000000000000000000000100000000000000008000000000000000000000000000000000000000000000000000000000000000000000000000000000000000000000000000000000000000000000000000000000000000000000000000000000000000000000000000000000000000000000000000000000000000000000001000000000000000000000080",
      "type": "0x2",
      "transactionHash": "0x959f9ab042070569fc9849e2bd1b0a00a911634a644514a1a5e2e9cb6261b84c",
      "transactionIndex": "0x5d",
      "blockHash": "0x4a6787e31946359671443eb78f069de3cefd2aa0d12394bb8c4ae75068746e63",
      "blockNumber": "0x17443a9",
      "gasUsed": "0x122dd",
      "effectiveGasPrice": "0xbc623a",
      "from": "0x615443c734716338039dff118e88dd050d1d9960",
      "to": "0x499218af9349bf35e70bf72d157cc8ebd291a7c3",
      "contractAddress": null,
      "l1BaseFeeScalar": "0x8dd",
      "l1BlobBaseFee": "0xde7b1c5a8",
      "l1BlobBaseFeeScalar": "0x101c12",
      "l1Fee": "0xa31a077d335",
      "l1GasPrice": "0x2b6a66f6c",
      "l1GasUsed": "0xb09"
    },
    {
      "status": "0x1",
      "cumulativeGasUsed": "0x194f44c",
      "logs": [
        {
          "address": "0x9fd06bb305d74c85961ce2307dab72b07d06606f",
          "topics": [
            "0x318be759e0d069183ded0831e6c2119c16ced81a05e6da31c19c8c53d01bb9e2"
          ],
          "data": "0x00000000000000000000000000000000000000000000000000000000000000000000000000000000000000000189d0e3965fca86bca5659ebdbfe8dcc9aa36b0000000000000000000000000f24c12926c8bf7d4d0c6443583766c6d0ebcd74f",
          "blockHash": "0x4a6787e31946359671443eb78f069de3cefd2aa0d12394bb8c4ae75068746e63",
          "blockNumber": "0x17443a9",
          "blockTimestamp": "0x6772e435",
          "transactionHash": "0xed25427c550065f1f84596d6e9c583ccc12e2d03c447191bcfcbfeae1914393e",
          "transactionIndex": "0x5e",
          "logIndex": "0x198",
          "removed": false
        }
      ],
      "logsBloom": "0x00200000000000000000000000000000000000000000000000000000000000000000000000000000000000000000000000000000000000000000000000000000000000000000000000000000000000000000000000000000000000000000000002000000000000000000000000000000000000000000000000002000000000000000000000000008000000000000000000000000000000000100000000000000000000000000000000000000000000000000000000000000000000000000000000000000000000000000000100000000000000000000000000000000000000000000000000000000000000000000000000000000000000000000000000000000",
      "type": "0x2",
      "transactionHash": "0xed25427c550065f1f84596d6e9c583ccc12e2d03c447191bcfcbfeae1914393e",
      "transactionIndex": "0x5e",
      "blockHash": "0x4a6787e31946359671443eb78f069de3cefd2aa0d12394bb8c4ae75068746e63",
      "blockNumber": "0x17443a9",
      "gasUsed": "0x122dd",
      "effectiveGasPrice": "0xbc623a",
      "from": "0x615443c734716338039dff118e88dd050d1d9960",
      "to": "0x9fd06bb305d74c85961ce2307dab72b07d06606f",
      "contractAddress": null,
      "l1BaseFeeScalar": "0x3",
      "l1BlobBaseFee": "0xde7b1c5a8",
      "l1BlobBaseFeeScalar": "0x0",
      "l1Fee": "0x5e33d78",
      "l1GasPrice": "0x2b6a66f6c",
      "l1GasUsed": "0xb09"
    }
  ],
  "libraries": [],
  "pending": [],
  "returns": {},
  "timestamp": 1735582775,
  "chain": 8453,
  "commit": "f047cfb"
}